{
  "contractName": "ERC20Options",
  "abi": [
    {
      "inputs": [
        {
          "internalType": "address",
          "name": "_protocolFeeRecipient",
          "type": "address"
        },
        {
          "internalType": "contract ERC20LiquidityPool",
          "name": "_lpPools",
          "type": "address"
        },
        {
          "internalType": "string",
          "name": "name",
          "type": "string"
        },
        {
          "internalType": "string",
          "name": "symbol",
          "type": "string"
        }
      ],
      "stateMutability": "nonpayable",
      "type": "constructor"
    },
    {
      "anonymous": false,
      "inputs": [
        {
          "indexed": true,
          "internalType": "address",
          "name": "owner",
          "type": "address"
        },
        {
          "indexed": true,
          "internalType": "address",
          "name": "approved",
          "type": "address"
        },
        {
          "indexed": true,
          "internalType": "uint256",
          "name": "tokenId",
          "type": "uint256"
        }
      ],
      "name": "Approval",
      "type": "event"
    },
    {
      "anonymous": false,
      "inputs": [
        {
          "indexed": true,
          "internalType": "address",
          "name": "owner",
          "type": "address"
        },
        {
          "indexed": true,
          "internalType": "address",
          "name": "operator",
          "type": "address"
        },
        {
          "indexed": false,
          "internalType": "bool",
          "name": "approved",
          "type": "bool"
        }
      ],
      "name": "ApprovalForAll",
      "type": "event"
    },
    {
      "anonymous": false,
      "inputs": [
        {
          "indexed": true,
          "internalType": "uint256",
          "name": "id",
          "type": "uint256"
        },
        {
          "indexed": true,
          "internalType": "address",
          "name": "account",
          "type": "address"
        },
        {
          "indexed": true,
          "internalType": "uint256",
          "name": "marketId",
          "type": "uint256"
        },
        {
          "indexed": false,
          "internalType": "uint256",
          "name": "protocolFee",
          "type": "uint256"
        },
        {
          "indexed": false,
          "internalType": "uint256",
          "name": "totalFee",
          "type": "uint256"
        }
      ],
      "name": "Create",
      "type": "event"
    },
    {
      "anonymous": false,
      "inputs": [
        {
          "indexed": true,
          "internalType": "uint256",
          "name": "optionId",
          "type": "uint256"
        },
        {
          "indexed": false,
          "internalType": "uint256",
          "name": "marketId",
          "type": "uint256"
        },
        {
          "indexed": false,
          "internalType": "uint256",
          "name": "profit",
          "type": "uint256"
        }
      ],
      "name": "Exercise",
      "type": "event"
    },
    {
      "anonymous": false,
      "inputs": [
        {
          "indexed": true,
          "internalType": "uint256",
          "name": "optionId",
          "type": "uint256"
        },
        {
          "indexed": false,
          "internalType": "uint256",
          "name": "marketId",
          "type": "uint256"
        },
        {
          "indexed": false,
          "internalType": "uint256",
          "name": "premium",
          "type": "uint256"
        }
      ],
      "name": "Expire",
      "type": "event"
    },
    {
      "anonymous": false,
      "inputs": [
        {
          "indexed": true,
          "internalType": "address",
          "name": "previousOwner",
          "type": "address"
        },
        {
          "indexed": true,
          "internalType": "address",
          "name": "newOwner",
          "type": "address"
        }
      ],
      "name": "OwnershipTransferred",
      "type": "event"
    },
    {
      "anonymous": false,
      "inputs": [
        {
          "indexed": true,
          "internalType": "address",
          "name": "from",
          "type": "address"
        },
        {
          "indexed": true,
          "internalType": "address",
          "name": "to",
          "type": "address"
        },
        {
          "indexed": true,
          "internalType": "uint256",
          "name": "tokenId",
          "type": "uint256"
        }
      ],
      "name": "Transfer",
      "type": "event"
    },
    {
      "inputs": [
        {
          "internalType": "address",
          "name": "to",
          "type": "address"
        },
        {
          "internalType": "uint256",
          "name": "tokenId",
          "type": "uint256"
        }
      ],
      "name": "approve",
      "outputs": [],
      "stateMutability": "nonpayable",
      "type": "function"
    },
    {
      "inputs": [],
      "name": "balMaxFee",
      "outputs": [
        {
          "internalType": "uint256",
          "name": "",
          "type": "uint256"
        }
      ],
      "stateMutability": "view",
      "type": "function",
      "constant": true
    },
    {
      "inputs": [],
      "name": "balMinFee",
      "outputs": [
        {
          "internalType": "uint256",
          "name": "",
          "type": "uint256"
        }
      ],
      "stateMutability": "view",
      "type": "function",
      "constant": true
    },
    {
      "inputs": [
        {
          "internalType": "address",
          "name": "owner",
          "type": "address"
        }
      ],
      "name": "balanceOf",
      "outputs": [
        {
          "internalType": "uint256",
          "name": "",
          "type": "uint256"
        }
      ],
      "stateMutability": "view",
      "type": "function",
      "constant": true
    },
    {
      "inputs": [],
      "name": "baseURI",
      "outputs": [
        {
          "internalType": "string",
          "name": "",
          "type": "string"
        }
      ],
      "stateMutability": "view",
      "type": "function",
      "constant": true
    },
    {
      "inputs": [],
      "name": "feeCalcs",
      "outputs": [
        {
          "internalType": "contract IFeeCalcs",
          "name": "",
          "type": "address"
        }
      ],
      "stateMutability": "view",
      "type": "function",
      "constant": true
    },
    {
      "inputs": [
        {
          "internalType": "uint256",
          "name": "tokenId",
          "type": "uint256"
        }
      ],
      "name": "getApproved",
      "outputs": [
        {
          "internalType": "address",
          "name": "",
          "type": "address"
        }
      ],
      "stateMutability": "view",
      "type": "function",
      "constant": true
    },
    {
      "inputs": [
        {
          "internalType": "address",
          "name": "owner",
          "type": "address"
        },
        {
          "internalType": "address",
          "name": "operator",
          "type": "address"
        }
      ],
      "name": "isApprovedForAll",
      "outputs": [
        {
          "internalType": "bool",
          "name": "",
          "type": "bool"
        }
      ],
      "stateMutability": "view",
      "type": "function",
      "constant": true
    },
    {
      "inputs": [],
      "name": "lpMaxFee",
      "outputs": [
        {
          "internalType": "uint256",
          "name": "",
          "type": "uint256"
        }
      ],
      "stateMutability": "view",
      "type": "function",
      "constant": true
    },
    {
      "inputs": [],
      "name": "lpMinFee",
      "outputs": [
        {
          "internalType": "uint256",
          "name": "",
          "type": "uint256"
        }
      ],
      "stateMutability": "view",
      "type": "function",
      "constant": true
    },
    {
      "inputs": [],
      "name": "lpPools",
      "outputs": [
        {
          "internalType": "contract ERC20LiquidityPool",
          "name": "",
          "type": "address"
        }
      ],
      "stateMutability": "view",
      "type": "function",
      "constant": true
    },
    {
      "inputs": [],
      "name": "name",
      "outputs": [
        {
          "internalType": "string",
          "name": "",
          "type": "string"
        }
      ],
      "stateMutability": "view",
      "type": "function",
      "constant": true
    },
    {
      "inputs": [
        {
          "internalType": "uint256",
          "name": "",
          "type": "uint256"
        }
      ],
      "name": "options",
      "outputs": [
        {
          "internalType": "enum IOptions.State",
          "name": "state",
          "type": "uint8"
        },
        {
          "internalType": "address payable",
          "name": "holder",
          "type": "address"
        },
        {
          "internalType": "uint256",
          "name": "strike",
          "type": "uint256"
        },
        {
          "internalType": "uint256",
          "name": "optionSize",
          "type": "uint256"
        },
        {
          "internalType": "uint256",
          "name": "lockedAmount",
          "type": "uint256"
        },
        {
          "internalType": "uint256",
          "name": "premium",
          "type": "uint256"
        },
        {
          "internalType": "uint256",
          "name": "expiration",
          "type": "uint256"
        },
        {
          "internalType": "enum IOptions.OptionType",
          "name": "optionType",
          "type": "uint8"
        },
        {
          "internalType": "uint256",
          "name": "marketId",
          "type": "uint256"
        }
      ],
      "stateMutability": "view",
      "type": "function",
      "constant": true
    },
    {
      "inputs": [],
      "name": "owner",
      "outputs": [
        {
          "internalType": "address",
          "name": "",
          "type": "address"
        }
      ],
      "stateMutability": "view",
      "type": "function",
      "constant": true
    },
    {
      "inputs": [
        {
          "internalType": "uint256",
          "name": "tokenId",
          "type": "uint256"
        }
      ],
      "name": "ownerOf",
      "outputs": [
        {
          "internalType": "address",
          "name": "",
          "type": "address"
        }
      ],
      "stateMutability": "view",
      "type": "function",
      "constant": true
    },
    {
      "inputs": [],
      "name": "protocolFee",
      "outputs": [
        {
          "internalType": "uint256",
          "name": "",
          "type": "uint256"
        }
      ],
      "stateMutability": "view",
      "type": "function",
      "constant": true
    },
    {
      "inputs": [],
      "name": "protocolFeeRecipient",
      "outputs": [
        {
          "internalType": "address",
          "name": "",
          "type": "address"
        }
      ],
      "stateMutability": "view",
      "type": "function",
      "constant": true
    },
    {
      "inputs": [],
      "name": "renounceOwnership",
      "outputs": [],
      "stateMutability": "nonpayable",
      "type": "function"
    },
    {
      "inputs": [
        {
          "internalType": "address",
          "name": "from",
          "type": "address"
        },
        {
          "internalType": "address",
          "name": "to",
          "type": "address"
        },
        {
          "internalType": "uint256",
          "name": "tokenId",
          "type": "uint256"
        }
      ],
      "name": "safeTransferFrom",
      "outputs": [],
      "stateMutability": "nonpayable",
      "type": "function"
    },
    {
      "inputs": [
        {
          "internalType": "address",
          "name": "from",
          "type": "address"
        },
        {
          "internalType": "address",
          "name": "to",
          "type": "address"
        },
        {
          "internalType": "uint256",
          "name": "tokenId",
          "type": "uint256"
        },
        {
          "internalType": "bytes",
          "name": "_data",
          "type": "bytes"
        }
      ],
      "name": "safeTransferFrom",
      "outputs": [],
      "stateMutability": "nonpayable",
      "type": "function"
    },
    {
      "inputs": [
        {
          "internalType": "address",
          "name": "operator",
          "type": "address"
        },
        {
          "internalType": "bool",
          "name": "approved",
          "type": "bool"
        }
      ],
      "name": "setApprovalForAll",
      "outputs": [],
      "stateMutability": "nonpayable",
      "type": "function"
    },
    {
      "inputs": [
        {
          "internalType": "bytes4",
          "name": "interfaceId",
          "type": "bytes4"
        }
      ],
      "name": "supportsInterface",
      "outputs": [
        {
          "internalType": "bool",
          "name": "",
          "type": "bool"
        }
      ],
      "stateMutability": "view",
      "type": "function",
      "constant": true
    },
    {
      "inputs": [],
      "name": "symbol",
      "outputs": [
        {
          "internalType": "string",
          "name": "",
          "type": "string"
        }
      ],
      "stateMutability": "view",
      "type": "function",
      "constant": true
    },
    {
      "inputs": [
        {
          "internalType": "uint256",
          "name": "index",
          "type": "uint256"
        }
      ],
      "name": "tokenByIndex",
      "outputs": [
        {
          "internalType": "uint256",
          "name": "",
          "type": "uint256"
        }
      ],
      "stateMutability": "view",
      "type": "function",
      "constant": true
    },
    {
      "inputs": [
        {
          "internalType": "address",
          "name": "owner",
          "type": "address"
        },
        {
          "internalType": "uint256",
          "name": "index",
          "type": "uint256"
        }
      ],
      "name": "tokenOfOwnerByIndex",
      "outputs": [
        {
          "internalType": "uint256",
          "name": "",
          "type": "uint256"
        }
      ],
      "stateMutability": "view",
      "type": "function",
      "constant": true
    },
    {
      "inputs": [
        {
          "internalType": "uint256",
          "name": "tokenId",
          "type": "uint256"
        }
      ],
      "name": "tokenURI",
      "outputs": [
        {
          "internalType": "string",
          "name": "",
          "type": "string"
        }
      ],
      "stateMutability": "view",
      "type": "function",
      "constant": true
    },
    {
      "inputs": [],
      "name": "totalSupply",
      "outputs": [
        {
          "internalType": "uint256",
          "name": "",
          "type": "uint256"
        }
      ],
      "stateMutability": "view",
      "type": "function",
      "constant": true
    },
    {
      "inputs": [
        {
          "internalType": "address",
          "name": "from",
          "type": "address"
        },
        {
          "internalType": "address",
          "name": "to",
          "type": "address"
        },
        {
          "internalType": "uint256",
          "name": "tokenId",
          "type": "uint256"
        }
      ],
      "name": "transferFrom",
      "outputs": [],
      "stateMutability": "nonpayable",
      "type": "function"
    },
    {
      "inputs": [
        {
          "internalType": "address",
          "name": "newOwner",
          "type": "address"
        }
      ],
      "name": "transferOwnership",
      "outputs": [],
      "stateMutability": "nonpayable",
      "type": "function"
    },
    {
      "inputs": [
        {
          "internalType": "address",
          "name": "recipient",
          "type": "address"
        }
      ],
      "name": "setProtocolFeeRecipient",
      "outputs": [],
      "stateMutability": "nonpayable",
      "type": "function"
    },
    {
      "inputs": [
        {
          "internalType": "contract IFeeCalcs",
          "name": "_feeCalcs",
          "type": "address"
        }
      ],
      "name": "setIFeeCalcs",
      "outputs": [],
      "stateMutability": "nonpayable",
      "type": "function"
    },
    {
      "inputs": [
        {
          "internalType": "uint256",
          "name": "_fee",
          "type": "uint256"
        }
      ],
      "name": "setLPMinFee",
      "outputs": [],
      "stateMutability": "nonpayable",
      "type": "function"
    },
    {
      "inputs": [
        {
          "internalType": "uint256",
          "name": "_fee",
          "type": "uint256"
        }
      ],
      "name": "setLPMaxFee",
      "outputs": [],
      "stateMutability": "nonpayable",
      "type": "function"
    },
    {
      "inputs": [
        {
          "internalType": "uint256",
          "name": "_fee",
          "type": "uint256"
        }
      ],
      "name": "setBalMinFee",
      "outputs": [],
      "stateMutability": "nonpayable",
      "type": "function"
    },
    {
      "inputs": [
        {
          "internalType": "uint256",
          "name": "_fee",
          "type": "uint256"
        }
      ],
      "name": "setBalMaxFee",
      "outputs": [],
      "stateMutability": "nonpayable",
      "type": "function"
    },
    {
      "inputs": [
        {
          "internalType": "uint256",
          "name": "_fee",
          "type": "uint256"
        }
      ],
      "name": "setProtocolFee",
      "outputs": [],
      "stateMutability": "nonpayable",
      "type": "function"
    },
    {
      "inputs": [
        {
          "internalType": "uint256",
          "name": "period",
          "type": "uint256"
        },
        {
          "internalType": "uint256",
          "name": "optionSize",
          "type": "uint256"
        },
        {
          "internalType": "uint256",
          "name": "strike",
          "type": "uint256"
        },
        {
          "internalType": "enum IOptions.OptionType",
          "name": "optionType",
          "type": "uint8"
        },
        {
          "internalType": "uint256",
          "name": "optionMarketId",
          "type": "uint256"
        }
      ],
      "name": "premium",
      "outputs": [
        {
          "components": [
            {
              "internalType": "uint256",
              "name": "total",
              "type": "uint256"
            },
            {
              "internalType": "uint256",
              "name": "protocolFee",
              "type": "uint256"
            },
            {
              "internalType": "uint256",
              "name": "strikeFee",
              "type": "uint256"
            },
            {
              "internalType": "uint256",
              "name": "periodFee",
              "type": "uint256"
            },
            {
              "internalType": "uint256",
              "name": "balanceFee",
              "type": "uint256"
            },
            {
              "internalType": "uint256",
              "name": "lpFee",
              "type": "uint256"
            }
          ],
          "internalType": "struct IFeeCalcs.Fees",
          "name": "_premium",
          "type": "tuple"
        }
      ],
      "stateMutability": "view",
      "type": "function",
      "constant": true
    },
    {
      "inputs": [
        {
          "internalType": "uint256",
          "name": "period",
          "type": "uint256"
        },
        {
          "internalType": "uint256",
          "name": "optionSize",
          "type": "uint256"
        },
        {
          "internalType": "uint256",
          "name": "strike",
          "type": "uint256"
        },
        {
          "internalType": "enum IOptions.OptionType",
          "name": "optionType",
          "type": "uint8"
        },
        {
          "internalType": "uint256",
          "name": "optionMarketId",
          "type": "uint256"
        }
      ],
      "name": "fees",
      "outputs": [
        {
          "components": [
            {
              "internalType": "uint256",
              "name": "total",
              "type": "uint256"
            },
            {
              "internalType": "uint256",
              "name": "protocolFee",
              "type": "uint256"
            },
            {
              "internalType": "uint256",
              "name": "strikeFee",
              "type": "uint256"
            },
            {
              "internalType": "uint256",
              "name": "periodFee",
              "type": "uint256"
            },
            {
              "internalType": "uint256",
              "name": "balanceFee",
              "type": "uint256"
            },
            {
              "internalType": "uint256",
              "name": "lpFee",
              "type": "uint256"
            }
          ],
          "internalType": "struct IFeeCalcs.Fees",
          "name": "_fees",
          "type": "tuple"
        }
      ],
      "stateMutability": "view",
      "type": "function",
      "constant": true
    },
    {
      "inputs": [
        {
          "internalType": "uint256",
          "name": "period",
          "type": "uint256"
        },
        {
          "internalType": "uint256",
          "name": "optionSize",
          "type": "uint256"
        },
        {
          "internalType": "uint256",
          "name": "strike",
          "type": "uint256"
        },
        {
          "internalType": "uint256",
          "name": "currentPrice",
          "type": "uint256"
        },
        {
          "internalType": "enum IOptions.OptionType",
          "name": "optionType",
          "type": "uint8"
        },
        {
          "internalType": "uint256",
          "name": "optionMarketId",
          "type": "uint256"
        }
      ],
      "name": "getProtocolFee",
      "outputs": [
        {
          "internalType": "uint256",
          "name": "",
          "type": "uint256"
        }
      ],
      "stateMutability": "view",
      "type": "function",
      "constant": true
    },
    {
      "inputs": [
        {
          "internalType": "uint256",
          "name": "period",
          "type": "uint256"
        },
        {
          "internalType": "uint256",
          "name": "optionSize",
          "type": "uint256"
        },
        {
          "internalType": "uint256",
          "name": "strike",
          "type": "uint256"
        },
        {
          "internalType": "uint256",
          "name": "currentPrice",
          "type": "uint256"
        },
        {
          "internalType": "enum IOptions.OptionType",
          "name": "optionType",
          "type": "uint8"
        },
        {
          "internalType": "uint256",
          "name": "optionMarketId",
          "type": "uint256"
        }
      ],
      "name": "getPeriodFee",
      "outputs": [
        {
          "internalType": "uint256",
          "name": "",
          "type": "uint256"
        }
      ],
      "stateMutability": "view",
      "type": "function",
      "constant": true
    },
    {
      "inputs": [
        {
          "internalType": "uint256",
          "name": "period",
          "type": "uint256"
        },
        {
          "internalType": "uint256",
          "name": "optionSize",
          "type": "uint256"
        },
        {
          "internalType": "uint256",
          "name": "strike",
          "type": "uint256"
        },
        {
          "internalType": "uint256",
          "name": "currentPrice",
          "type": "uint256"
        },
        {
          "internalType": "enum IOptions.OptionType",
          "name": "optionType",
          "type": "uint8"
        },
        {
          "internalType": "uint256",
          "name": "optionMarketId",
          "type": "uint256"
        }
      ],
      "name": "getBalanceFee",
      "outputs": [
        {
          "internalType": "uint256",
          "name": "",
          "type": "uint256"
        }
      ],
      "stateMutability": "view",
      "type": "function",
      "constant": true
    },
    {
      "inputs": [
        {
          "internalType": "uint256",
          "name": "period",
          "type": "uint256"
        },
        {
          "internalType": "uint256",
          "name": "optionSize",
          "type": "uint256"
        },
        {
          "internalType": "uint256",
          "name": "strike",
          "type": "uint256"
        },
        {
          "internalType": "uint256",
          "name": "currentPrice",
          "type": "uint256"
        },
        {
          "internalType": "enum IOptions.OptionType",
          "name": "optionType",
          "type": "uint8"
        },
        {
          "internalType": "uint256",
          "name": "optionMarketId",
          "type": "uint256"
        }
      ],
      "name": "getLiquidityProviderFee",
      "outputs": [
        {
          "internalType": "uint256",
          "name": "",
          "type": "uint256"
        }
      ],
      "stateMutability": "view",
      "type": "function",
      "constant": true
    },
    {
      "inputs": [
        {
          "internalType": "uint256",
          "name": "period",
          "type": "uint256"
        },
        {
          "internalType": "uint256",
          "name": "optionSize",
          "type": "uint256"
        },
        {
          "internalType": "uint256",
          "name": "strike",
          "type": "uint256"
        },
        {
          "internalType": "enum IOptions.OptionType",
          "name": "optionType",
          "type": "uint8"
        },
        {
          "internalType": "uint256",
          "name": "marketId",
          "type": "uint256"
        },
        {
          "internalType": "uint256[]",
          "name": "optionIDs",
          "type": "uint256[]"
        }
      ],
      "name": "create1",
      "outputs": [
        {
          "internalType": "uint256",
          "name": "optionID",
          "type": "uint256"
        }
      ],
      "stateMutability": "nonpayable",
      "type": "function"
    },
    {
      "inputs": [
        {
          "internalType": "address",
          "name": "account",
          "type": "address"
        },
        {
          "internalType": "uint256",
          "name": "period",
          "type": "uint256"
        },
        {
          "internalType": "uint256",
          "name": "optionSize",
          "type": "uint256"
        },
        {
          "internalType": "uint256",
          "name": "strike",
          "type": "uint256"
        },
        {
          "internalType": "enum IOptions.OptionType",
          "name": "optionType",
          "type": "uint8"
        },
        {
          "internalType": "uint256",
          "name": "marketId",
          "type": "uint256"
        },
        {
          "internalType": "uint256[]",
          "name": "optionIDs",
          "type": "uint256[]"
        }
      ],
      "name": "create2",
      "outputs": [
        {
          "internalType": "uint256",
          "name": "optionID",
          "type": "uint256"
        }
      ],
      "stateMutability": "nonpayable",
      "type": "function"
    },
    {
      "inputs": [
        {
          "internalType": "uint256",
          "name": "period",
          "type": "uint256"
        },
        {
          "internalType": "uint256",
          "name": "optionSize",
          "type": "uint256"
        },
        {
          "internalType": "uint256",
          "name": "strike",
          "type": "uint256"
        },
        {
          "internalType": "enum IOptions.OptionType",
          "name": "optionType",
          "type": "uint8"
        },
        {
          "internalType": "uint256",
          "name": "optionMarketId",
          "type": "uint256"
        }
      ],
      "name": "create3",
      "outputs": [
        {
          "internalType": "uint256",
          "name": "optionID",
          "type": "uint256"
        }
      ],
      "stateMutability": "nonpayable",
      "type": "function"
    },
    {
      "inputs": [
        {
          "internalType": "address",
          "name": "account",
          "type": "address"
        },
        {
          "internalType": "uint256",
          "name": "period",
          "type": "uint256"
        },
        {
          "internalType": "uint256",
          "name": "optionSize",
          "type": "uint256"
        },
        {
          "internalType": "uint256",
          "name": "strike",
          "type": "uint256"
        },
        {
          "internalType": "enum IOptions.OptionType",
          "name": "optionType",
          "type": "uint8"
        },
        {
          "internalType": "uint256",
          "name": "optionMarketId",
          "type": "uint256"
        }
      ],
      "name": "create4",
      "outputs": [
        {
          "internalType": "uint256",
          "name": "optionID",
          "type": "uint256"
        }
      ],
      "stateMutability": "nonpayable",
      "type": "function"
    },
    {
      "inputs": [
        {
          "internalType": "uint256",
          "name": "optionID",
          "type": "uint256"
        },
        {
          "internalType": "address payable",
          "name": "newHolder",
          "type": "address"
        }
      ],
      "name": "transfer",
      "outputs": [],
      "stateMutability": "nonpayable",
      "type": "function"
    },
    {
      "inputs": [
        {
          "internalType": "uint256",
          "name": "optionID",
          "type": "uint256"
        }
      ],
      "name": "exercise",
      "outputs": [],
      "stateMutability": "nonpayable",
      "type": "function"
    },
    {
      "inputs": [
        {
          "internalType": "uint256",
          "name": "optionMarketId",
          "type": "uint256"
        }
      ],
      "name": "latestPrice",
      "outputs": [
        {
          "internalType": "uint256",
          "name": "",
          "type": "uint256"
        }
      ],
      "stateMutability": "view",
      "type": "function",
      "constant": true
    },
    {
      "inputs": [
        {
          "internalType": "uint256[]",
          "name": "optionIDs",
          "type": "uint256[]"
        }
      ],
      "name": "unlockAll",
      "outputs": [],
      "stateMutability": "nonpayable",
      "type": "function"
    },
    {
      "inputs": [
        {
          "internalType": "uint256",
          "name": "optionID",
          "type": "uint256"
        }
      ],
      "name": "unlock",
      "outputs": [],
      "stateMutability": "nonpayable",
      "type": "function"
    },
    {
      "inputs": [
        {
          "internalType": "uint256",
          "name": "period",
          "type": "uint256"
        },
        {
          "internalType": "uint256",
          "name": "optionSize",
          "type": "uint256"
        },
        {
          "internalType": "uint256",
          "name": "strike",
          "type": "uint256"
        },
        {
          "internalType": "uint256",
          "name": "currentPrice",
          "type": "uint256"
        },
        {
          "internalType": "enum IOptions.OptionType",
          "name": "optionType",
          "type": "uint8"
        },
        {
          "internalType": "uint256",
          "name": "optionMarketId",
          "type": "uint256"
        }
      ],
      "name": "getStrikeFee",
      "outputs": [
        {
          "internalType": "uint256",
          "name": "",
          "type": "uint256"
        }
      ],
      "stateMutability": "pure",
      "type": "function",
      "constant": true
    }
  ],
  "bytecode": "0x60806040526064600f556103e860105560646011556107d060125560646013553480156200002c57600080fd5b5060405162004d1138038062004d118339810160408190526200004f9162000306565b818160006200005d62000161565b600080546001600160a01b0319166001600160a01b0383169081178255604051929350917f8be0079c531659141344cd1fd0a4f28419497f9722a3daafe3b4186f6b6457e0908290a350620000b96301ffc9a760e01b62000165565b8151620000ce906007906020850190620001c3565b508051620000e4906008906020840190620001c3565b50620000f76380ac58cd60e01b62000165565b62000109635b5e139f60e01b62000165565b6200011b63780e9d6360e01b62000165565b5050600d80546001600160a01b039485166001600160a01b031991821617909155600b805495909416948116949094179092555050600e805490911630179055620003e8565b3390565b6001600160e01b031980821614156200019b5760405162461bcd60e51b8152600401620001929062000398565b60405180910390fd5b6001600160e01b0319166000908152600160208190526040909120805460ff19169091179055565b828054600181600116156101000203166002900490600052602060002090601f016020900481019282601f106200020657805160ff191683800117855562000236565b8280016001018555821562000236579182015b828111156200023657825182559160200191906001019062000219565b506200024492915062000248565b5090565b5b8082111562000244576000815560010162000249565b600082601f83011262000270578081fd5b81516001600160401b038082111562000287578283fd5b6040516020601f8401601f1916820181018381118382101715620002a9578586fd5b80604052508194508382528681858801011115620002c657600080fd5b600092505b83831015620002ea5785830181015182840182015291820191620002cb565b83831115620002fc5760008185840101525b5050505092915050565b600080600080608085870312156200031c578384fd5b84516200032981620003cf565b60208601519094506200033c81620003cf565b60408601519093506001600160401b038082111562000359578384fd5b62000367888389016200025f565b935060608701519150808211156200037d578283fd5b506200038c878288016200025f565b91505092959194509250565b6020808252601c908201527f4552433136353a20696e76616c696420696e7465726661636520696400000000604082015260600190565b6001600160a01b0381168114620003e557600080fd5b50565b61491980620003f86000396000f3fe608060405234801561001057600080fd5b506004361061030c5760003560e01c806371c5500d1161019d578063b0e21e8a116100e9578063c87b56dd116100a2578063e985e9c51161007c578063e985e9c514610673578063edabc8ca14610686578063f2fde38b1461068e578063fba30b72146106a15761030c565b8063c87b56dd1461063a578063e342b5981461064d578063e521cb92146106605761030c565b8063b0e21e8a146105e9578063b6daa1c0146105f1578063b76ea559146105f9578063b7760c8f1461060c578063b88d4fde1461061f578063c58df7ce146106325761030c565b80639a7dcded11610156578063a60ad7ca11610130578063a60ad7ca146105a8578063a7eba488146105b0578063aca7ef37146105c3578063b07f0a41146105d65761030c565b80639a7dcded1461056f578063a22cb46514610582578063a24d2b5a146105955761030c565b806371c5500d14610511578063787dce3d146105315780637b220ad914610544578063847d781f1461054c5780638da5cb5b1461055f57806395d89b41146105675761030c565b80632f745c591161025c5780635663b1a01161021557806364df049e116101ef57806364df049e146104e65780636c0360eb146104ee57806370a08231146104f6578063715018a6146105095761030c565b80635663b1a0146104ad5780636198e339146104c05780636352211e146104d35761030c565b80632f745c59146104265780633f1eb3b714610439578063409e22051461044c57806342842e0e1461047457806342dcaece146104875780634f6ccce71461049a5761030c565b80630dca5ca1116102c957806318160ddd116102a357806318160ddd146103e55780631d7fe538146103ed57806323b872dd146104005780632f1a0a25146104135761030c565b80630dca5ca1146103ac5780630f6e7eab146103bf578063174ed5cc146103d25761030c565b806301ffc9a71461031157806306fdde031461033a578063081812fc1461034f578063095ea7b31461036f5780630b167b0f146103845780630dbf6ce91461038c575b600080fd5b61032461031f366004613b47565b6106b4565b6040516103319190613e89565b60405180910390f35b6103426106d7565b6040516103319190613f0d565b61036261035d366004613b9b565b61076d565b6040516103319190613e1e565b61038261037d3660046139d9565b6107b9565b005b610362610851565b61039f61039a366004613bef565b610860565b604051610331919061475a565b6103826103ba366004613b9b565b61087a565b61039f6103cd366004613cb0565b6108d6565b61039f6103e0366004613b9b565b610b5e565b61039f610c5f565b6103826103fb366004613b9b565b610c70565b61038261040e3660046138a4565b610ccc565b61039f610421366004613cb0565b610d04565b61039f6104343660046139d9565b610e5a565b61039f610447366004613a5e565b610e85565b61045f61045a366004613b9b565b610eac565b60405161033199989796959493929190613ead565b6103826104823660046138a4565b610f17565b61039f610495366004613c36565b610f32565b61039f6104a8366004613b9b565b610f58565b6103826104bb366004613850565b610f6e565b6103826104ce366004613b9b565b610fc5565b6103626104e1366004613b9b565b6110e9565b610362611111565b610342611120565b61039f610504366004613850565b611181565b6103826111ca565b61052461051f366004613bef565b611249565b6040516103319190614716565b61038261053f366004613b9b565b611350565b61039f6113ac565b61039f61055a366004613cb0565b6113b2565b610362611754565b610342611763565b61039f61057d366004613a04565b6117c4565b6103826105903660046139ac565b611cd7565b6103826105a3366004613b9b565b611da5565b61039f611e01565b6105246105be366004613bef565b611e07565b61039f6105d1366004613cb0565b6121fd565b6103826105e4366004613b9b565b61220a565b61039f612325565b61039f61232b565b61039f610607366004613cb0565b612331565b61038261061a366004613bcb565b6123a6565b61038261062d3660046138e4565b6124a0565b61039f6124df565b610342610648366004613b9b565b6124e5565b61038261065b366004613aeb565b61262f565b61038261066e366004613850565b61265e565b61032461068136600461386c565b6126c8565b6103626126f6565b61038261069c366004613850565b612705565b6103826106af366004613b9b565b6127bb565b6001600160e01b0319811660009081526001602052604090205460ff165b919050565b60078054604080516020601f60026000196101006001881615020190951694909404938401819004810282018101909252828152606093909290918301828280156107635780601f1061073857610100808354040283529160200191610763565b820191906000526020600020905b81548152906001019060200180831161074657829003601f168201915b5050505050905090565b600061077882612817565b61079d5760405162461bcd60e51b81526004016107949061440e565b60405180910390fd5b506000908152600560205260409020546001600160a01b031690565b60006107c4826110e9565b9050806001600160a01b0316836001600160a01b031614156107f85760405162461bcd60e51b815260040161079490614527565b806001600160a01b031661080a612824565b6001600160a01b03161480610826575061082681610681612824565b6108425760405162461bcd60e51b81526004016107949061427f565b61084c8383612828565b505050565b600e546001600160a01b031681565b60006108703387878787876117c4565b9695505050505050565b610882612824565b6000546001600160a01b039081169116146108af5760405162461bcd60e51b81526004016107949061445a565b6113888111156108d15760405162461bcd60e51b8152600401610794906141e2565b601155565b600d546040516275cbbb60e51b815260009182916001600160a01b039091169063b9807f2b908290630eb977609061091290889060040161475a565b60206040518083038186803b15801561092a57600080fd5b505afa15801561093e573d6000803e3d6000fd5b505050506040513d601f19601f820116820180604052508101906109629190613b7f565b60006040518363ffffffff1660e01b8152600401610981929190613e94565b60206040518083038186803b15801561099957600080fd5b505afa1580156109ad573d6000803e3d6000fd5b505050506040513d601f19601f820116820180604052508101906109d19190613bb3565b600d546040516275cbbb60e51b81529192506000916001600160a01b039091169063b9807f2b908290630eb9776090610a0e90899060040161475a565b60206040518083038186803b158015610a2657600080fd5b505afa158015610a3a573d6000803e3d6000fd5b505050506040513d601f19601f82011682018060405250810190610a5e9190613b7f565b8a6040518363ffffffff1660e01b8152600401610a7c929190613e94565b60206040518083038186803b158015610a9457600080fd5b505afa158015610aa8573d6000803e3d6000fd5b505050506040513d601f19601f82011682018060405250810190610acc9190613bb3565b90506000610afe6b033b2e3c9fd0803ce80000006004610af76002610af18888612896565b906128bb565b0a906128bb565b9050600f54610b20633b9aca00610af1601054856128fd90919063ffffffff16565b1115610b4d57610b43633b9aca00610af1601054846128fd90919063ffffffff16565b9350505050610870565b5050600f5498975050505050505050565b600d54604051639e88187360e01b815260009182916001600160a01b0390911690639e88187390610b9390869060040161475a565b60206040518083038186803b158015610bab57600080fd5b505afa158015610bbf573d6000803e3d6000fd5b505050506040513d601f19601f82011682018060405250810190610be39190613b7f565b6001600160a01b031663feaf968c6040518163ffffffff1660e01b815260040160a06040518083038186803b158015610c1b57600080fd5b505afa158015610c2f573d6000803e3d6000fd5b505050506040513d601f19601f82011682018060405250810190610c539190613d04565b50919695505050505050565b6000610c6b6003612937565b905090565b610c78612824565b6000546001600160a01b03908116911614610ca55760405162461bcd60e51b81526004016107949061445a565b611388811115610cc75760405162461bcd60e51b8152600401610794906141e2565b600f55565b610cdd610cd7612824565b82612942565b610cf95760405162461bcd60e51b815260040161079490614568565b61084c8383836129c7565b60006001836002811115610d1457fe5b1415610dc457600d546040516306fff76960e31b8152610dbd916001600160a01b0316906337ffbb4890610d4c90869060040161475a565b60206040518083038186803b158015610d6457600080fd5b505afa158015610d78573d6000803e3d6000fd5b505050506040513d601f19601f82011682018060405250810190610d9c9190613bb3565b610af186610af189610db7610db08e612ad5565b8d906128fd565b906128fd565b9050610870565b600d546040516306fff76960e31b8152610dbd916001600160a01b0316906337ffbb4890610df690869060040161475a565b60206040518083038186803b158015610e0e57600080fd5b505afa158015610e22573d6000803e3d6000fd5b505050506040513d601f19601f82011682018060405250810190610e469190613bb3565b610af187610af188610db7610db08e612ad5565b6001600160a01b0382166000908152600260205260408120610e7c9083612b1d565b90505b92915050565b6000610e91838361262f565b610e9f8989898989896117c4565b9998505050505050505050565b600c8181548110610eb957fe5b60009182526020909120600890910201805460018201546002830154600384015460048501546005860154600687015460079097015460ff80881699506101009097046001600160a01b031697959694959394929391929091169089565b61084c838383604051806020016040528060008152506124a0565b6000610f3e838361262f565b610f4c3389898989896117c4565b98975050505050505050565b600080610f66600384612b29565b509392505050565b610f76612824565b6000546001600160a01b03908116911614610fa35760405162461bcd60e51b81526004016107949061445a565b600e80546001600160a01b0319166001600160a01b0392909216919091179055565b6000600c8281548110610fd457fe5b90600052602060002090600802019050428160050154106110075760405162461bcd60e51b8152600401610794906140cd565b6001815460ff16600381111561101957fe5b146110365760405162461bcd60e51b815260040161079490613f99565b805460ff19166003178155600d54604051636198e33960e01b81526001600160a01b0390911690636198e3399061107190859060040161475a565b600060405180830381600087803b15801561108b57600080fd5b505af115801561109f573d6000803e3d6000fd5b50505050817f8df989ec4d63ff27cc8613c3967b232fc87098777add68203a63bbca1e508ffa826007015483600401546040516110dd929190614782565b60405180910390a25050565b6000610e7f826040518060600160405280602981526020016148bb6029913960039190612b47565b600b546001600160a01b031681565b600a8054604080516020601f60026000196101006001881615020190951694909404938401819004810282018101909252828152606093909290918301828280156107635780601f1061073857610100808354040283529160200191610763565b60006001600160a01b0382166111a95760405162461bcd60e51b8152600401610794906142dc565b6001600160a01b0382166000908152600260205260409020610e7f90612937565b6111d2612824565b6000546001600160a01b039081169116146111ff5760405162461bcd60e51b81526004016107949061445a565b600080546040516001600160a01b03909116907f8be0079c531659141344cd1fd0a4f28419497f9722a3daafe3b4186f6b6457e0908390a3600080546001600160a01b0319169055565b61125161374e565b61125961374e565b6112668787878787611e07565b905061128d633b9aca00610db7612710610af18a86602001516128fd90919063ffffffff16565b602083015260408101516112b390633b9aca0090610db79061271090610af1908b6128fd565b604083015260608101516112d990633b9aca0090610db79061271090610af1908b6128fd565b606083015260808101516112ff90633b9aca0090610db79061271090610af1908b6128fd565b608083015260a081015161132590633b9aca0090610db79061271090610af1908b6128fd565b60a0830181905260808301516060840151604085015160208601510101010182525095945050505050565b611358612824565b6000546001600160a01b039081169116146113855760405162461bcd60e51b81526004016107949061445a565b6113888111156113a75760405162461bcd60e51b8152600401610794906141e2565b601355565b60125481565b60008060018460028111156113c357fe5b14156115c457600d546040516275cbbb60e51b81526115bd91633b9aca0091610af1916001600160a01b03169063b9807f2b908290630eb977609061140c908b9060040161475a565b60206040518083038186803b15801561142457600080fd5b505afa158015611438573d6000803e3d6000fd5b505050506040513d601f19601f8201168201806040525081019061145c9190613b7f565b8c6040518363ffffffff1660e01b815260040161147a929190613e94565b60206040518083038186803b15801561149257600080fd5b505afa1580156114a6573d6000803e3d6000fd5b505050506040513d601f19601f820116820180604052508101906114ca9190613bb3565b600d546040516275cbbb60e51b81526001600160a01b03909116906363fac07e908290630eb9776090611501908c9060040161475a565b60206040518083038186803b15801561151957600080fd5b505afa15801561152d573d6000803e3d6000fd5b505050506040513d601f19601f820116820180604052508101906115519190613b7f565b6040518263ffffffff1660e01b815260040161156d9190613e1e565b60206040518083038186803b15801561158557600080fd5b505afa158015611599573d6000803e3d6000fd5b505050506040513d601f19601f82011682018060405250810190610db79190613bb3565b90506116ff565b600d546040516275cbbb60e51b81526116fc91633b9aca0091610af1916001600160a01b03169063b9807f2b908290630eb9776090611607908b9060040161475a565b60206040518083038186803b15801561161f57600080fd5b505afa158015611633573d6000803e3d6000fd5b505050506040513d601f19601f820116820180604052508101906116579190613b7f565b8c6040518363ffffffff1660e01b8152600401611675929190613e94565b60206040518083038186803b15801561168d57600080fd5b505afa1580156116a1573d6000803e3d6000fd5b505050506040513d601f19601f820116820180604052508101906116c59190613bb3565b600d546040516275cbbb60e51b81526001600160a01b039091169063b767ea97908290630eb9776090611501908c9060040161475a565b90505b60115461171f633b9aca00610af1601254856128fd90919063ffffffff16565b111561174a57611742633b9aca00610af1601254846128fd90919063ffffffff16565b915050610870565b5050601154610870565b6000546001600160a01b031690565b60088054604080516020601f60026000196101006001881615020190951694909404938401819004810282018101909252828152606093909290918301828280156107635780601f1061073857610100808354040283529160200191610763565b600060028360028111156117d457fe5b14806117eb575060018360028111156117e957fe5b145b6118075760405162461bcd60e51b815260040161079490614208565b6201518086101561182a5760405162461bcd60e51b815260040161079490614676565b6224ea0086111561184d5760405162461bcd60e51b8152600401610794906146a3565b61185561374e565b6118628787878787611249565b600c5492509050611871613784565b61187f888888888887612b5e565b600d546040516275cbbb60e51b81529192506001600160a01b031690630eb97760906118af90879060040161475a565b60206040518083038186803b1580156118c757600080fd5b505afa1580156118db573d6000803e3d6000fd5b505050506040513d601f19601f820116820180604052508101906118ff9190613b7f565b600d54602084015184516040516323b872dd60e01b81526001600160a01b03948516946323b872dd9461193e9433949290911692910390600401613e32565b602060405180830381600087803b15801561195857600080fd5b505af115801561196c573d6000803e3d6000fd5b505050506040513d601f19601f820116820180604052508101906119909190613b2b565b50600d546040516275cbbb60e51b81526001600160a01b0390911690630eb97760906119c090879060040161475a565b60206040518083038186803b1580156119d857600080fd5b505afa1580156119ec573d6000803e3d6000fd5b505050506040513d601f19601f82011682018060405250810190611a109190613b7f565b600b5460208401516040516323b872dd60e01b81526001600160a01b03938416936323b872dd93611a4a9333939290911691600401613e32565b602060405180830381600087803b158015611a6457600080fd5b505af1158015611a78573d6000803e3d6000fd5b505050506040513d601f19601f82011682018060405250810190611a9c9190613b2b565b50600c805460018181018355600092909252825160089091027fdf6966c971051c3d54ec59162606531493a51404a002842f56009d7e5cf4a8c70180548493919291839160ff191690836003811115611af157fe5b021790555060208201518160000160016101000a8154816001600160a01b0302191690836001600160a01b0316021790555060408201518160010155606082015181600201556080820151816003015560a0820151816004015560c0820151816005015560e08201518160060160006101000a81548160ff02191690836002811115611b7957fe5b02179055506101009190910151600790910155600d54608082015160a08301516040516275cbbb60e51b81526001600160a01b0390931692636da18a6392879290918590630eb9776090611bd1908c9060040161475a565b60206040518083038186803b158015611be957600080fd5b505afa158015611bfd573d6000803e3d6000fd5b505050506040513d601f19601f82011682018060405250810190611c219190613b7f565b8a6040518663ffffffff1660e01b8152600401611c42959493929190614790565b600060405180830381600087803b158015611c5c57600080fd5b505af1158015611c70573d6000803e3d6000fd5b50505050611c7e3384612c97565b83896001600160a01b0316847f5bf2435cb3dfa923391ad2f237d62d9a355ea08b9b3af334d3ab235462411b1c85602001518660000151604051611cc3929190614782565b60405180910390a450509695505050505050565b611cdf612824565b6001600160a01b0316826001600160a01b03161415611d105760405162461bcd60e51b8152600401610794906141ab565b8060066000611d1d612824565b6001600160a01b03908116825260208083019390935260409182016000908120918716808252919093529120805460ff191692151592909217909155611d61612824565b6001600160a01b03167f17307eab39ab6107e8899845ad3d59bd9653f200f220920489ca2b5937696c3183604051611d999190613e89565b60405180910390a35050565b611dad612824565b6000546001600160a01b03908116911614611dda5760405162461bcd60e51b81526004016107949061445a565b611388811115611dfc5760405162461bcd60e51b8152600401610794906141e2565b601255565b600f5481565b611e0f61374e565b600d54604051639e88187360e01b81526000916001600160a01b031690639e88187390611e4090869060040161475a565b60206040518083038186803b158015611e5857600080fd5b505afa158015611e6c573d6000803e3d6000fd5b505050506040513d601f19601f82011682018060405250810190611e909190613b7f565b6001600160a01b031663feaf968c6040518163ffffffff1660e01b815260040160a06040518083038186803b158015611ec857600080fd5b505afa158015611edc573d6000803e3d6000fd5b505050506040513d601f19601f82011682018060405250810190611f009190613d04565b5050600e5460405163aca7ef3760e01b81529294508493506001600160a01b03169163aca7ef379150611f41908a908c908b9087908c908c906004016147cc565b60206040518083038186803b158015611f5957600080fd5b505afa158015611f6d573d6000803e3d6000fd5b505050506040513d601f19601f82011682018060405250810190611f919190613bb3565b6020840152600e5460405163b76ea55960e01b81526001600160a01b039091169063b76ea55990611fd0908a908c908b9087908c908c906004016147cc565b60206040518083038186803b158015611fe857600080fd5b505afa158015611ffc573d6000803e3d6000fd5b505050506040513d601f19601f820116820180604052508101906120209190613bb3565b604080850191909152600e549051632f1a0a2560e01b81526001600160a01b0390911690632f1a0a2590612062908a908c908b9087908c908c906004016147cc565b60206040518083038186803b15801561207a57600080fd5b505afa15801561208e573d6000803e3d6000fd5b505050506040513d601f19601f820116820180604052508101906120b29190613bb3565b6060840152600e5460405163847d781f60e01b81526001600160a01b039091169063847d781f906120f1908a908c908b9087908c908c906004016147cc565b60206040518083038186803b15801561210957600080fd5b505afa15801561211d573d6000803e3d6000fd5b505050506040513d601f19601f820116820180604052508101906121419190613bb3565b6080840152600e54604051630f6e7eab60e01b81526001600160a01b0390911690630f6e7eab90612180908a908c908b9087908c908c906004016147cc565b60206040518083038186803b15801561219857600080fd5b505afa1580156121ac573d6000803e3d6000fd5b505050506040513d601f19601f820116820180604052508101906121d09190613bb3565b60a08401819052608084015160608501516040860151602087015101010101835250909695505050505050565b6013549695505050505050565b6000600c828154811061221957fe5b90600052602060002090600802019050428160050154101561224d5760405162461bcd60e51b815260040161079490614104565b805461010090046001600160a01b031633148061227f5750805461227f9061010090046001600160a01b0316336126c8565b61229b5760405162461bcd60e51b815260040161079490614326565b6001815460ff1660038111156122ad57fe5b146122ca5760405162461bcd60e51b81526004016107949061461a565b805460ff1916600217815560006122e083612cb5565b9050827f335575b4a1d2176b7b1d2fc572bb56fedb74390e00351f6c221a1a43ac2fdeb5836007015483604051612318929190614782565b60405180910390a2505050565b60135481565b60105481565b6000838511801561234d5750600183600281111561234b57fe5b145b1561236657610dbd84610af1612710610db78984612fc1565b83851080156123805750600283600281111561237e57fe5b145b1561239957610dbd84610af1612710610db7838a612fc1565b5060009695505050505050565b6000600c83815481106123b557fe5b9060005260206000209060080201905060006001600160a01b0316826001600160a01b031614156123f85760405162461bcd60e51b81526004016107949061463f565b428160050154101561241c5760405162461bcd60e51b815260040161079490614104565b805461010090046001600160a01b0316331461244a5760405162461bcd60e51b8152600401610794906145f0565b6001815460ff16600381111561245c57fe5b146124795760405162461bcd60e51b8152600401610794906146cf565b80546001600160a01b0390921661010002610100600160a81b031990921691909117905550565b6124b16124ab612824565b83612942565b6124cd5760405162461bcd60e51b815260040161079490614568565b6124d984848484613003565b50505050565b60115481565b60606124f082612817565b61250c5760405162461bcd60e51b8152600401610794906144d8565b60008281526009602090815260409182902080548351601f60026000196101006001861615020190931692909204918201849004840281018401909452808452606093928301828280156125a15780601f10612576576101008083540402835291602001916125a1565b820191906000526020600020905b81548152906001019060200180831161258457829003601f168201915b5050600a54939450505050600260001961010060018416150201909116046125ca5790506106d2565b8051156125fc57600a816040516020016125e5929190613d9d565b6040516020818303038152906040529150506106d2565b600a61260784613036565b604051602001612618929190613d9d565b604051602081830303815290604052915050919050565b8060005b818110156124d95761265684848381811061264a57fe5b90506020020135610fc5565b600101612633565b612666612824565b6000546001600160a01b039081169116146126935760405162461bcd60e51b81526004016107949061445a565b6001600160a01b0381166126a657600080fd5b600b80546001600160a01b0319166001600160a01b0392909216919091179055565b6001600160a01b03918216600090815260066020908152604080832093909416825291909152205460ff1690565b600d546001600160a01b031681565b61270d612824565b6000546001600160a01b0390811691161461273a5760405162461bcd60e51b81526004016107949061445a565b6001600160a01b0381166127605760405162461bcd60e51b815260040161079490614019565b600080546040516001600160a01b03808516939216917f8be0079c531659141344cd1fd0a4f28419497f9722a3daafe3b4186f6b6457e091a3600080546001600160a01b0319166001600160a01b0392909216919091179055565b6127c3612824565b6000546001600160a01b039081169116146127f05760405162461bcd60e51b81526004016107949061445a565b6113888111156128125760405162461bcd60e51b8152600401610794906141e2565b601055565b6000610e7f600383613111565b3390565b600081815260056020526040902080546001600160a01b0319166001600160a01b038416908117909155819061285d826110e9565b6001600160a01b03167f8c5be1e5ebec7d5bd14f71427d1e84f3dd0314c0f7b2291e5b200ac8c7c3b92560405160405180910390a45050565b600082820183811015610e7c5760405162461bcd60e51b815260040161079490614130565b6000610e7c83836040518060400160405280601a81526020017f536166654d6174683a206469766973696f6e206279207a65726f00000000000081525061311d565b60008261290c57506000610e7f565b8282028284828161291957fe5b0414610e7c5760405162461bcd60e51b8152600401610794906143cd565b6000610e7f82613154565b600061294d82612817565b6129695760405162461bcd60e51b815260040161079490614233565b6000612974836110e9565b9050806001600160a01b0316846001600160a01b031614806129af5750836001600160a01b03166129a48461076d565b6001600160a01b0316145b806129bf57506129bf81856126c8565b949350505050565b826001600160a01b03166129da826110e9565b6001600160a01b031614612a005760405162461bcd60e51b81526004016107949061448f565b6001600160a01b038216612a265760405162461bcd60e51b815260040161079490614167565b612a3183838361084c565b612a3c600082612828565b6001600160a01b0383166000908152600260205260409020612a5e9082613158565b506001600160a01b0382166000908152600260205260409020612a819082613164565b50612a8e60038284613170565b5080826001600160a01b0316846001600160a01b03167fddf252ad1be2c89b69c2b068fc378daa952ba7f163c4a11628f55a4df523b3ef60405160405180910390a4505050565b806000612aee6001612ae88460026128bb565b90612896565b90505b81811015612b175780612b0d6002610af183612ae888826128bb565b9092509050612af1565b50919050565b6000610e7c8383613186565b6000808080612b3886866131cb565b909450925050505b9250929050565b6000612b54848484613227565b90505b9392505050565b612b66613784565b6000612b7f836040015188612fc190919063ffffffff16565b6040805161012081019091529091508060018152602001336001600160a01b03168152602001878152602001888152602001612c62633b9aca00610db78760400151612ae8612710610af1600d60009054906101000a90046001600160a01b03166001600160a01b03166307c7b4a78e6040518263ffffffff1660e01b8152600401612c0b919061475a565b60206040518083038186803b158015612c2357600080fd5b505afa158015612c37573d6000803e3d6000fd5b505050506040513d601f19601f82011682018060405250810190612c5b9190613bb3565b8a906128fd565b815284516020820152428a016040820152606001866002811115612c8257fe5b81526020019490945250919695505050505050565b612cb1828260405180602001604052806000815250613286565b5050565b6000612cbf613784565b600c8381548110612ccc57fe5b600091825260209091206040805161012081019091526008909202018054829060ff166003811115612cfa57fe5b6003811115612d0557fe5b8152815461010090046001600160a01b0316602082015260018201546040820152600280830154606083015260038301546080830152600483015460a0830152600583015460c0830152600683015460e09092019160ff1690811115612d6757fe5b6002811115612d7257fe5b815260079190910154602090910152600d54610100820151604051639e88187360e01b81529293506000926001600160a01b0390921691639e88187391612dbb9160040161475a565b60206040518083038186803b158015612dd357600080fd5b505afa158015612de7573d6000803e3d6000fd5b505050506040513d601f19601f82011682018060405250810190612e0b9190613b7f565b6001600160a01b031663feaf968c6040518163ffffffff1660e01b815260040160a06040518083038186803b158015612e4357600080fd5b505afa158015612e57573d6000803e3d6000fd5b505050506040513d601f19601f82011682018060405250810190612e7b9190613d04565b5091935083925060029150612e8d9050565b8360e001516002811115612e9d57fe5b1415612ef1578083604001511115612ec75760405162461bcd60e51b815260040161079490613f62565b612eea81610af18560600151610db7876040015186612fc190919063ffffffff16565b9350612f3b565b8083604001511015612f155760405162461bcd60e51b81526004016107949061405f565b612f3881610af18560600151610db7858860400151612fc190919063ffffffff16565b93505b8260800151841115612f4f57826080015193505b600d5460208401516040516381b34f1560e01b81526001600160a01b03909216916381b34f1591612f87918991908990600401614763565b600060405180830381600087803b158015612fa157600080fd5b505af1158015612fb5573d6000803e3d6000fd5b50505050505050919050565b6000610e7c83836040518060400160405280601e81526020017f536166654d6174683a207375627472616374696f6e206f766572666c6f7700008152506132b9565b61300e8484846129c7565b61301a848484846132e5565b6124d95760405162461bcd60e51b815260040161079490613fc7565b60608161305b57506040805180820190915260018152600360fc1b60208201526106d2565b8160005b811561307357600101600a8204915061305f565b60608167ffffffffffffffff8111801561308c57600080fd5b506040519080825280601f01601f1916602001820160405280156130b7576020820181803683370190505b50859350905060001982015b831561310857600a840660300160f81b828280600190039350815181106130e657fe5b60200101906001600160f81b031916908160001a905350600a840493506130c3565b50949350505050565b6000610e7c83836133c4565b6000818361313e5760405162461bcd60e51b81526004016107949190613f0d565b50600083858161314a57fe5b0495945050505050565b5490565b6000610e7c83836133dc565b6000610e7c83836134a2565b6000612b5484846001600160a01b0385166134ec565b815460009082106131a95760405162461bcd60e51b815260040161079490613f20565b8260000182815481106131b857fe5b9060005260206000200154905092915050565b8154600090819083106131f05760405162461bcd60e51b815260040161079490614356565b600084600001848154811061320157fe5b906000526020600020906002020190508060000154816001015492509250509250929050565b600082815260018401602052604081205482816132575760405162461bcd60e51b81526004016107949190613f0d565b5084600001600182038154811061326a57fe5b9060005260206000209060020201600101549150509392505050565b6132908383613583565b61329d60008484846132e5565b61084c5760405162461bcd60e51b815260040161079490613fc7565b600081848411156132dd5760405162461bcd60e51b81526004016107949190613f0d565b505050900390565b60006132f9846001600160a01b0316613647565b613305575060016129bf565b606061338d630a85bd0160e11b61331a612824565b8887876040516024016133309493929190613e56565b604051602081830303815290604052906001600160e01b0319166020820180516001600160e01b038381831617835250505050604051806060016040528060328152602001614889603291396001600160a01b0388169190613680565b90506000818060200190518101906133a59190613b63565b6001600160e01b031916630a85bd0160e11b1492505050949350505050565b60009081526001919091016020526040902054151590565b60008181526001830160205260408120548015613498578354600019808301919081019060009087908390811061340f57fe5b906000526020600020015490508087600001848154811061342c57fe5b60009182526020808320909101929092558281526001898101909252604090209084019055865487908061345c57fe5b60019003818190600052602060002001600090559055866001016000878152602001908152602001600020600090556001945050505050610e7f565b6000915050610e7f565b60006134ae83836133c4565b6134e457508154600181810184556000848152602080822090930184905584548482528286019093526040902091909155610e7f565b506000610e7f565b600082815260018401602052604081205480613551575050604080518082018252838152602080820184815286546001818101895560008981528481209551600290930290950191825591519082015586548684528188019092529290912055612b57565b8285600001600183038154811061356457fe5b9060005260206000209060020201600101819055506000915050612b57565b6001600160a01b0382166135a95760405162461bcd60e51b815260040161079490614398565b6135b281612817565b156135cf5760405162461bcd60e51b815260040161079490614096565b6135db6000838361084c565b6001600160a01b03821660009081526002602052604090206135fd9082613164565b5061360a60038284613170565b5060405181906001600160a01b038416906000907fddf252ad1be2c89b69c2b068fc378daa952ba7f163c4a11628f55a4df523b3ef908290a45050565b6000813f7fc5d2460186f7233c927e7db2dcc703c0e500b653ca82273b7bfad8045d85a4708181148015906129bf575050151592915050565b6060612b548484600085606061369585613647565b6136b15760405162461bcd60e51b8152600401610794906145b9565b60006060866001600160a01b031685876040516136ce9190613d81565b60006040518083038185875af1925050503d806000811461370b576040519150601f19603f3d011682016040523d82523d6000602084013e613710565b606091505b509150915081156137245791506129bf9050565b8051156137345780518082602001fd5b8360405162461bcd60e51b81526004016107949190613f0d565b6040518060c001604052806000815260200160008152602001600081526020016000815260200160008152602001600081525090565b604080516101208101909152806000815260200160006001600160a01b031681526020016000815260200160008152602001600081526020016000815260200160008152602001600060028111156137d857fe5b8152602001600081525090565b60008083601f8401126137f6578182fd5b50813567ffffffffffffffff81111561380d578182fd5b6020830191508360208083028501011115612b4057600080fd5b803560038110610e7f57600080fd5b805169ffffffffffffffffffff81168114610e7f57600080fd5b600060208284031215613861578081fd5b8135610e7c8161483f565b6000806040838503121561387e578081fd5b82356138898161483f565b915060208301356138998161483f565b809150509250929050565b6000806000606084860312156138b8578081fd5b83356138c38161483f565b925060208401356138d38161483f565b929592945050506040919091013590565b600080600080608085870312156138f9578081fd5b84356139048161483f565b93506020858101356139158161483f565b935060408601359250606086013567ffffffffffffffff80821115613938578384fd5b818801915088601f83011261394b578384fd5b813581811115613959578485fd5b604051601f8201601f1916810185018381118282101715613978578687fd5b60405281815283820185018b101561398e578586fd5b81858501868301379081019093019390935250939692955090935050565b600080604083850312156139be578182fd5b82356139c98161483f565b9150602083013561389981614857565b600080604083850312156139eb578182fd5b82356139f68161483f565b946020939093013593505050565b60008060008060008060c08789031215613a1c578182fd5b8635613a278161483f565b9550602087013594506040870135935060608701359250613a4b8860808901613827565b915060a087013590509295509295509295565b60008060008060008060008060e0898b031215613a79578182fd5b8835613a848161483f565b97506020890135965060408901359550606089013594506080890135613aa98161487b565b935060a0890135925060c089013567ffffffffffffffff811115613acb578283fd5b613ad78b828c016137e5565b999c989b5096995094979396929594505050565b60008060208385031215613afd578182fd5b823567ffffffffffffffff811115613b13578283fd5b613b1f858286016137e5565b90969095509350505050565b600060208284031215613b3c578081fd5b8151610e7c81614857565b600060208284031215613b58578081fd5b8135610e7c81614865565b600060208284031215613b74578081fd5b8151610e7c81614865565b600060208284031215613b90578081fd5b8151610e7c8161483f565b600060208284031215613bac578081fd5b5035919050565b600060208284031215613bc4578081fd5b5051919050565b60008060408385031215613bdd578182fd5b8235915060208301356138998161483f565b600080600080600060a08688031215613c06578283fd5b853594506020860135935060408601359250613c258760608801613827565b949793965091946080013592915050565b600080600080600080600060c0888a031215613c50578081fd5b873596506020880135955060408801359450613c6f8960608a01613827565b93506080880135925060a088013567ffffffffffffffff811115613c91578182fd5b613c9d8a828b016137e5565b989b979a50959850939692959293505050565b60008060008060008060c08789031215613cc8578384fd5b863595506020870135945060408701359350606087013592506080870135613cef8161487b565b8092505060a087013590509295509295509295565b600080600080600060a08688031215613d1b578283fd5b613d258787613836565b9450602086015193506040860151925060608601519150613d498760808801613836565b90509295509295909350565b60008151808452613d6d816020860160208601614813565b601f01601f19169290920160200192915050565b60008251613d93818460208701614813565b9190910192915050565b6000808454600180821660008114613dbc5760018114613dd357613e02565b60ff198316865260028304607f1686019350613e02565b600283048886526020808720875b83811015613dfa5781548a820152908501908201613de1565b505050860193505b5050508351613e15818360208801614813565b01949350505050565b6001600160a01b0391909116815260200190565b6001600160a01b039384168152919092166020820152604081019190915260600190565b6001600160a01b038581168252841660208201526040810183905260806060820181905260009061087090830184613d55565b901515815260200190565b6001600160a01b03929092168252602082015260400190565b610120810160048b10613ebc57fe5b8a825260018060a01b038a1660208301528860408301528760608301528660808301528560a08301528460c083015260038410613ef557fe5b60e08201939093526101000152979650505050505050565b600060208252610e7c6020830184613d55565b60208082526022908201527f456e756d657261626c655365743a20696e646578206f7574206f6620626f756e604082015261647360f01b606082015260800190565b60208082526018908201527f43757272656e7420707269636520697320746f6f206c6f770000000000000000604082015260600190565b6020808252601490820152734f7074696f6e206973206e6f742061637469766560601b604082015260600190565b60208082526032908201527f4552433732313a207472616e7366657220746f206e6f6e20455243373231526560408201527131b2b4bb32b91034b6b83632b6b2b73a32b960711b606082015260800190565b60208082526026908201527f4f776e61626c653a206e6577206f776e657220697320746865207a65726f206160408201526564647265737360d01b606082015260800190565b60208082526019908201527f43757272656e7420707269636520697320746f6f206869676800000000000000604082015260600190565b6020808252601c908201527f4552433732313a20746f6b656e20616c7265616479206d696e74656400000000604082015260600190565b6020808252601a908201527f4f7074696f6e20686173206e6f74206578706972656420796574000000000000604082015260600190565b60208082526012908201527113dc1d1a5bdb881a185cc8195e1c1a5c995960721b604082015260600190565b6020808252601b908201527f536166654d6174683a206164646974696f6e206f766572666c6f770000000000604082015260600190565b60208082526024908201527f4552433732313a207472616e7366657220746f20746865207a65726f206164646040820152637265737360e01b606082015260800190565b60208082526019908201527f4552433732313a20617070726f766520746f2063616c6c657200000000000000604082015260600190565b6020808252600c908201526b08ccaca40e8dede40d0d2ced60a31b604082015260600190565b60208082526011908201527057726f6e67206f7074696f6e207479706560781b604082015260600190565b6020808252602c908201527f4552433732313a206f70657261746f7220717565727920666f72206e6f6e657860408201526b34b9ba32b73a103a37b5b2b760a11b606082015260800190565b60208082526038908201527f4552433732313a20617070726f76652063616c6c6572206973206e6f74206f7760408201527f6e6572206e6f7220617070726f76656420666f7220616c6c0000000000000000606082015260800190565b6020808252602a908201527f4552433732313a2062616c616e636520717565727920666f7220746865207a65604082015269726f206164647265737360b01b606082015260800190565b602080825260169082015275139bdd081cd95b99195c881bdc88185c1c1c9bdd995960521b604082015260600190565b60208082526022908201527f456e756d657261626c654d61703a20696e646578206f7574206f6620626f756e604082015261647360f01b606082015260800190565b6020808252818101527f4552433732313a206d696e7420746f20746865207a65726f2061646472657373604082015260600190565b60208082526021908201527f536166654d6174683a206d756c7469706c69636174696f6e206f766572666c6f6040820152607760f81b606082015260800190565b6020808252602c908201527f4552433732313a20617070726f76656420717565727920666f72206e6f6e657860408201526b34b9ba32b73a103a37b5b2b760a11b606082015260800190565b6020808252818101527f4f776e61626c653a2063616c6c6572206973206e6f7420746865206f776e6572604082015260600190565b60208082526029908201527f4552433732313a207472616e73666572206f6620746f6b656e2074686174206960408201526839903737ba1037bbb760b91b606082015260800190565b6020808252602f908201527f4552433732314d657461646174613a2055524920717565727920666f72206e6f60408201526e3732bc34b9ba32b73a103a37b5b2b760891b606082015260800190565b60208082526021908201527f4552433732313a20617070726f76616c20746f2063757272656e74206f776e656040820152603960f91b606082015260800190565b60208082526031908201527f4552433732313a207472616e736665722063616c6c6572206973206e6f74206f6040820152701ddb995c881b9bdc88185c1c1c9bdd9959607a1b606082015260800190565b6020808252601d908201527f416464726573733a2063616c6c20746f206e6f6e2d636f6e7472616374000000604082015260600190565b60208082526010908201526f2bb937b7339036b9b39739b2b73232b960811b604082015260600190565b6020808252600b908201526a57726f6e6720737461746560a81b604082015260600190565b6020808252601a908201527f6e657720686f6c6465722061646472657373206973207a65726f000000000000604082015260600190565b60208082526013908201527214195c9a5bd9081a5cc81d1bdbc81cda1bdc9d606a1b604082015260600190565b602080825260129082015271506572696f6420697320746f6f206c6f6e6760701b604082015260600190565b60208082526027908201527f4f6e6c7920616374697665206f7074696f6e20636f756c64206265207472616e6040820152661cd9995c9c995960ca1b606082015260800190565b600060c082019050825182526020830151602083015260408301516040830152606083015160608301526080830151608083015260a083015160a083015292915050565b90815260200190565b9283526001600160a01b03919091166020830152604082015260600190565b918252602082015260400190565b85815260208101859052604081018490526001600160a01b038316606082015260a081016147bd83614808565b60808301529695505050505050565b600060c0820190508782528660208301528560408301528460608301526147f284614808565b60808301528260a0830152979650505050505050565b80600381106106d257fe5b60005b8381101561482e578181015183820152602001614816565b838111156124d95750506000910152565b6001600160a01b038116811461485457600080fd5b50565b801515811461485457600080fd5b6001600160e01b03198116811461485457600080fd5b6003811061485457600080fdfe4552433732313a207472616e7366657220746f206e6f6e20455243373231526563656976657220696d706c656d656e7465724552433732313a206f776e657220717565727920666f72206e6f6e6578697374656e7420746f6b656ea26469706673582212200e24f5c51f60816384df542ed0d3c3a5bc3bdfc672e60a0222f6745004ec3f0764736f6c634300060c0033",
  "immutableReferences": {},
  "source": "pragma solidity 0.6.12;\r\npragma experimental ABIEncoderV2;\r\n\r\n/**\r\n * SPDX-License-Identifier: GPL-3.0-or-later\r\n * Hegic\r\n * Copyright (C) 2020 Hegic Protocol\r\n *\r\n *  19 March 2021 - Modified by DannyDoritoEth for Alfabet\r\n *\r\n * This program is free software: you can redistribute it and/or modify\r\n * it under the terms of the GNU General Public License as published by\r\n * the Free Software Foundation, either version 3 of the License, or\r\n * (at your option) any later version.\r\n *\r\n * This program is distributed in the hope that it will be useful,\r\n * but WITHOUT ANY WARRANTY; without even the implied warranty of\r\n * MERCHANTABILITY or FITNESS FOR A PARTICULAR PURPOSE.  See the\r\n * GNU General Public License for more details.\r\n *\r\n * You should have received a copy of the GNU General Public License\r\n * along with this program.  If not, see <http://www.gnu.org/licenses/>.\r\n */\r\n\r\nimport \"./ERC20LiquidityPool.sol\";\r\n// import \"ERC20LiquidityPool.sol\";\r\n\r\n\r\n/** \r\n * @title Alfabet Options\r\n */\r\ncontract ERC20Options is Ownable, IOptions, IFeeCalcs, ERC721 {\r\n    using SafeMath for uint256;\r\n    using SafeERC20 for IERC20;\r\n\r\n    address public protocolFeeRecipient;\r\n    Option[] public override options;\r\n    ERC20LiquidityPool public lpPools;\r\n    \r\n    IFeeCalcs public feeCalcs;\r\n\r\n    uint public lpMinFee = 100;    //1%\r\n    uint public lpMaxFee = 1000;   //10%\r\n    \r\n    uint public balMinFee = 100;   //1%\r\n    uint public balMaxFee = 2000;  //20%\r\n\r\n    uint public protocolFee = 100;  //1%\r\n\r\n    /**\r\n     */\r\n    constructor(\r\n        address _protocolFeeRecipient,\r\n        ERC20LiquidityPool _lpPools,\r\n        string memory name,\r\n        string memory symbol \r\n    ) ERC721(name, symbol) public {\r\n        lpPools = _lpPools;\r\n        protocolFeeRecipient = _protocolFeeRecipient;\r\n        feeCalcs = this;\r\n    }\r\n\r\n\r\n\r\n    /**\r\n     * @notice Used for changing protocolFeeRecipient\r\n     * @param recipient New protocolFeeRecipient recipient address\r\n     */\r\n    function setProtocolFeeRecipient(address recipient) external onlyOwner {\r\n        require(address(recipient) != address(0));\r\n        protocolFeeRecipient = recipient;\r\n    }\r\n\r\n    function setIFeeCalcs(IFeeCalcs _feeCalcs) external onlyOwner {\r\n        feeCalcs = _feeCalcs;\r\n    }\r\n\r\n    function setLPMinFee(uint _fee) external onlyOwner {\r\n        require(_fee >= 0, \"Fee too low\");\r\n        require(_fee <= 5000, \"Fee too high\");\r\n        lpMinFee = _fee;\r\n    }\r\n\r\n    function setLPMaxFee(uint _fee) external onlyOwner {\r\n        require(_fee >= 0, \"Fee too low\");\r\n        require(_fee <= 5000, \"Fee too high\");\r\n        lpMaxFee = _fee;\r\n    }\r\n\r\n    function setBalMinFee(uint _fee) external onlyOwner {\r\n        require(_fee >= 0, \"Fee too low\");\r\n        require(_fee <= 5000, \"Fee too high\");\r\n        balMinFee = _fee;\r\n    }\r\n\r\n    function setBalMaxFee(uint _fee) external onlyOwner {\r\n        require(_fee >= 0, \"Fee too low\");\r\n        require(_fee <= 5000, \"Fee too high\");\r\n        balMaxFee = _fee;\r\n    }\r\n\r\n    function setProtocolFee(uint _fee) external onlyOwner {\r\n        require(_fee >= 0, \"Fee too low\");\r\n        require(_fee <= 5000, \"Fee too high\");\r\n        protocolFee = _fee;\r\n    }\r\n\r\n    \r\n    function premium(\r\n        uint256 period,\r\n        uint256 optionSize,\r\n        uint256 strike,\r\n        OptionType optionType,\r\n        uint optionMarketId\r\n    )   public\r\n        view\r\n        returns (\r\n            Fees memory _premium \r\n        )\r\n    {\r\n        (Fees memory fees) = fees(period, optionSize, strike, optionType, optionMarketId);\r\n        _premium.protocolFee = fees.protocolFee.mul(optionSize).div(10000).mul(1e9);\r\n        _premium.strikeFee = fees.strikeFee.mul(optionSize).div(10000).mul(1e9);\r\n        _premium.periodFee = fees.periodFee.mul(optionSize).div(10000).mul(1e9);\r\n        _premium.balanceFee = fees.balanceFee.mul(optionSize).div(10000).mul(1e9);\r\n        _premium.lpFee = fees.lpFee.mul(optionSize).div(10000).mul(1e9);\r\n        _premium.total = _premium.protocolFee + _premium.strikeFee + _premium.periodFee + _premium.balanceFee + _premium.lpFee;\r\n    }\r\n\r\n    function fees(\r\n        uint256 period,\r\n        uint256 optionSize,\r\n        uint256 strike,\r\n        OptionType optionType,\r\n        uint optionMarketId\r\n    )   public\r\n        view\r\n        returns (\r\n            Fees memory _fees \r\n        )\r\n    {\r\n        (, int latestPrice, , , ) = lpPools.priceProvider(optionMarketId).latestRoundData();\r\n        uint256 currentPrice = uint256(latestPrice);\r\n        _fees.protocolFee = feeCalcs.getProtocolFee(optionSize, period, strike, currentPrice, optionType, optionMarketId);\r\n        _fees.strikeFee = feeCalcs.getStrikeFee(optionSize, period, strike, currentPrice, optionType, optionMarketId);\r\n        _fees.periodFee = feeCalcs.getPeriodFee(optionSize, period, strike, currentPrice, optionType, optionMarketId);\r\n        _fees.balanceFee = feeCalcs.getBalanceFee(optionSize, period, strike, currentPrice, optionType, optionMarketId);\r\n        _fees.lpFee = feeCalcs.getLiquidityProviderFee(optionSize, period, strike, currentPrice, optionType, optionMarketId);\r\n        _fees.total = _fees.protocolFee + _fees.strikeFee + _fees.periodFee + _fees.balanceFee + _fees.lpFee;\r\n    }\r\n\r\n\r\n    function getProtocolFee(uint256 period,\r\n        uint256 optionSize,\r\n        uint256 strike,\r\n        uint256 currentPrice,\r\n        OptionType optionType,\r\n        uint optionMarketId)\r\n        override\r\n        external\r\n        view\r\n        returns (uint256)\r\n    {\r\n        return protocolFee;\r\n    }\r\n\r\n\r\n    function getStrikeFee(uint256 period,\r\n        uint256 optionSize,\r\n        uint256 strike,\r\n        uint256 currentPrice,\r\n        OptionType optionType,\r\n        uint optionMarketId\r\n    )\r\n        override\r\n        external\r\n        pure\r\n        returns (uint256)\r\n    {\r\n      if (strike > currentPrice && optionType == OptionType.Put)\r\n            return (strike.sub(currentPrice)).mul(1e4).div(currentPrice);\r\n        if (strike < currentPrice && optionType == OptionType.Call)\r\n            return (currentPrice.sub(strike)).mul(1e4).div(currentPrice);\r\n        return 0;        \r\n    }\r\n\r\n\r\n    function getPeriodFee(\r\n        uint256 period,\r\n        uint256 optionSize,\r\n        uint256 strike,\r\n        uint256 currentPrice,\r\n        OptionType optionType,\r\n        uint optionMarketId\r\n    ) override external view returns (uint256) {\r\n        if (optionType == OptionType.Put)\r\n            return optionSize\r\n                .mul(sqrt(period))\r\n                .mul(strike)\r\n                .div(currentPrice)\r\n                .div(lpPools.PRICE_DECIMALS(optionMarketId));\r\n        else\r\n            return optionSize\r\n                .mul(sqrt(period))\r\n                .mul(currentPrice)\r\n                .div(strike)\r\n                .div(lpPools.PRICE_DECIMALS(optionMarketId));\r\n    }\r\n\r\n    function getBalanceFee(uint256 period,\r\n        uint256 optionSize,\r\n        uint256 strike,\r\n        uint256 currentPrice,\r\n        OptionType optionType,\r\n        uint optionMarketId)\r\n        override\r\n        external\r\n        view\r\n        returns (uint256)\r\n    {\r\n        uint256 feeProportion;\r\n        if (optionType == IOptions.OptionType.Put){\r\n             feeProportion = lpPools.putRatio(lpPools.collatoralToken(optionMarketId)).mul(lpPools.proportionLocked(lpPools.collatoralToken(optionMarketId), optionSize)).div(1e9);\r\n        }\r\n        else{\r\n             feeProportion = lpPools.callRatio(lpPools.collatoralToken(optionMarketId)).mul(lpPools.proportionLocked(lpPools.collatoralToken(optionMarketId), optionSize)).div(1e9);\r\n        }\r\n\r\n        if(feeProportion.mul(balMaxFee).div(1e9)>balMinFee)\r\n            return feeProportion.mul(balMaxFee).div(1e9);\r\n        else\r\n            return balMinFee; \r\n    }\r\n\r\n\r\n    function getLiquidityProviderFee(uint256 period,\r\n        uint256 optionSize,\r\n        uint256 strike,\r\n        uint256 currentPrice,\r\n        OptionType optionType,\r\n        uint optionMarketId)         \r\n        override\r\n        external\r\n        view\r\n        returns (uint256)\r\n    {\r\n        uint256 a = lpPools.proportionLocked(lpPools.collatoralToken(optionMarketId), 0);\r\n        uint256 b = lpPools.proportionLocked(lpPools.collatoralToken(optionMarketId), optionSize);\r\n        uint256 lpCurve = (((a.add(b).div(2)))**4).div(1e27);\r\n        \r\n        if(lpCurve.mul(lpMaxFee).div(1e9)>lpMinFee)\r\n            return lpCurve.mul(lpMaxFee).div(1e9);\r\n        else\r\n            return lpMinFee;\r\n    }\r\n\r\n\r\n\r\n   function create1(\r\n        uint256 period,\r\n        uint256 optionSize,\r\n        uint256 strike,\r\n        OptionType optionType,\r\n        uint256 marketId,\r\n        uint256[] calldata optionIDs\r\n    )\r\n        external        \r\n        returns (uint256 optionID)\r\n    {\r\n        unlockAll(optionIDs);\r\n        return create4(msg.sender,period,optionSize,strike,optionType,marketId);\r\n    }\r\n\r\n   function create2(\r\n        address account,\r\n        uint256 period,\r\n        uint256 optionSize,\r\n        uint256 strike,\r\n        OptionType optionType,\r\n        uint256 marketId,\r\n        uint256[] calldata optionIDs\r\n    )\r\n        external        \r\n        returns (uint256 optionID)\r\n    {\r\n        unlockAll(optionIDs);\r\n        return create4(account, period,optionSize,strike,optionType,marketId);\r\n    }\r\n\r\n    function create3(\r\n        uint256 period,\r\n        uint256 optionSize,\r\n        uint256 strike,\r\n        OptionType optionType,\r\n        uint256 optionMarketId\r\n    )\r\n        public        \r\n        returns (uint256 optionID)\r\n    {\r\n        return create4(msg.sender,period,optionSize,strike,optionType,optionMarketId);\r\n    }  \r\n    \r\n    /**\r\n     * @notice Creates a new option\r\n     * @param period Option period in seconds (1 days <= period <= 4 weeks)\r\n     * @param optionSize Option size\r\n     * @param strike Strike price of the option\r\n     * @param optionType Call or Put option type\r\n     * @return optionID Created option's ID\r\n     */\r\n    function create4(\r\n        address account,\r\n        uint256 period,\r\n        uint256 optionSize,\r\n        uint256 strike,\r\n        OptionType optionType,\r\n        uint256 optionMarketId\r\n    )\r\n        public        \r\n        returns (uint256 optionID)\r\n    {\r\n        require(\r\n            optionType == OptionType.Call || optionType == OptionType.Put,\r\n            \"Wrong option type\"\r\n        );\r\n        require(period >= 1 days, \"Period is too short\");\r\n        require(period <= 4 weeks, \"Period is too long\");\r\n        (Fees memory _premium) = premium(period, optionSize, strike, optionType, optionMarketId);\r\n        \r\n        optionID = options.length;        \r\n        Option memory option = _createOption(period,optionSize,strike,optionType,optionMarketId,_premium);\r\n\r\n\r\n        lpPools.collatoralToken(optionMarketId).transferFrom(msg.sender, address(lpPools), _premium.total-_premium.protocolFee);\r\n        lpPools.collatoralToken(optionMarketId).transferFrom(msg.sender, address(protocolFeeRecipient), _premium.protocolFee);\r\n\r\n        options.push(option);\r\n        lpPools.lock(optionID, option.lockedAmount, option.premium, lpPools.collatoralToken(optionMarketId), optionType);\r\n        _safeMint(msg.sender, optionID);\r\n        emit Create(optionID, account, optionMarketId, _premium.protocolFee, _premium.total);\r\n    }\r\n\r\n    function _createOption(uint256 period,\r\n        uint256 optionSize,\r\n        uint256 strike,\r\n        OptionType optionType,\r\n        uint256 optionMarketId, Fees memory _premium) internal view returns (Option memory option){\r\n\r\n        uint256 strikeAmount = optionSize.sub(_premium.strikeFee);\r\n        // uint optPremium = (_premium.total.sub(_premium.protocolFee));\r\n        option = Option(\r\n           State.Active,\r\n            msg.sender,\r\n            strike,\r\n            optionSize,\r\n            (strikeAmount.mul(lpPools.collateralizationRatio(optionMarketId)).div(10000).add(_premium.strikeFee)).mul(1e9),\r\n            _premium.total,\r\n            block.timestamp + period,\r\n            optionType,\r\n            optionMarketId\r\n        );\r\n    }\r\n\r\n    /**\r\n     * @notice Transfers an active option\r\n     * @param optionID ID of your option\r\n     * @param newHolder Address of new option holder\r\n     */\r\n    function transfer(uint256 optionID, address payable newHolder) external {\r\n        Option storage option = options[optionID];\r\n\r\n        require(newHolder != address(0), \"new holder address is zero\");\r\n        require(option.expiration >= block.timestamp, \"Option has expired\");\r\n        require(option.holder == msg.sender, \"Wrong msg.sender\");\r\n        require(option.state == State.Active, \"Only active option could be transferred\");\r\n\r\n        option.holder = newHolder;\r\n    }\r\n\r\n    /**\r\n     * @notice Exercises an active option\r\n     * @param optionID ID of your option\r\n     */\r\n    function exercise(uint256 optionID) external {\r\n        Option storage option = options[optionID];\r\n\r\n        require(option.expiration >= block.timestamp, \"Option has expired\");\r\n        require((option.holder == msg.sender)||isApprovedForAll(option.holder,msg.sender), \"Not sender or approved\");\r\n        require(option.state == State.Active, \"Wrong state\");\r\n\r\n        option.state = State.Exercised;\r\n        uint256 profit = payProfit(optionID);\r\n\r\n        emit Exercise(optionID, option.marketId, profit);\r\n    }\r\n\r\n  \r\n    // /**\r\n    //  * @notice Allows the erc20 pool contract to receive and send tokens\r\n    //  */\r\n    // function approve() public {\r\n    //     token.safeApprove(address(lpPools), uint(-1));\r\n    //     token.safeApprove(protocolFeeRecipient, uint(-1));\r\n    // }\r\n\r\n    function latestPrice(uint optionMarketId) public view returns (uint256 ){\r\n         (, int lp, , , ) = lpPools.priceProvider(optionMarketId).latestRoundData();\r\n        return uint256(lp); \r\n    }\r\n\r\n\r\n    /**\r\n     * @notice Unlocks an array of options\r\n     * @param optionIDs array of options\r\n     */\r\n    function unlockAll(uint256[] calldata optionIDs) public {\r\n        uint arrayLength = optionIDs.length;\r\n        for (uint256 i = 0; i < arrayLength; i++) {\r\n            unlock(optionIDs[i]);\r\n        }\r\n    }\r\n\r\n    /**\r\n     * @notice Unlock funds locked in the expired options\r\n     * @param optionID ID of the option\r\n     */\r\n    function unlock(uint256 optionID) public {\r\n        Option storage option = options[optionID];\r\n        require(option.expiration < block.timestamp, \"Option has not expired yet\");\r\n        require(option.state == State.Active, \"Option is not active\");\r\n        option.state = State.Expired;\r\n        lpPools.unlock(optionID);\r\n        emit Expire(optionID, option.marketId, option.premium);\r\n    }\r\n\r\n  \r\n\r\n    /**\r\n     * @notice Calculates strikeFee\r\n     * @param optionSize Option size\r\n     * @param strike Strike price of the option\r\n     * @param currentPrice Current price of BTC\r\n     * @return fee Strike fee amount\r\n     */\r\n    function getStrikeFee(\r\n        uint256 optionSize,\r\n        uint256 strike,\r\n        uint256 currentPrice,\r\n        OptionType optionType\r\n    ) internal pure returns (uint256 fee) {\r\n        if (strike > currentPrice && optionType == OptionType.Put)\r\n            return strike.sub(currentPrice).mul(optionSize).div(currentPrice);\r\n        if (strike < currentPrice && optionType == OptionType.Call)\r\n            return currentPrice.sub(strike).mul(optionSize).div(currentPrice);\r\n        return 0;\r\n    }\r\n\r\n    /**\r\n     * @notice Sends profits in erc20 tokens from the token pool to an option holder's address\r\n     * @param optionID A specific option contract id\r\n     */\r\n    function payProfit(uint optionID)\r\n        internal\r\n        returns (uint profit)\r\n    {\r\n        Option memory option = options[optionID];\r\n        (, int _latestPrice, , , ) = lpPools.priceProvider(option.marketId).latestRoundData();\r\n        uint256 currentPrice = uint256(_latestPrice);\r\n        if (option.optionType == OptionType.Call) {\r\n            require(option.strike <= currentPrice, \"Current price is too low\");\r\n            profit = currentPrice.sub(option.strike).mul(option.optionSize).div(currentPrice);\r\n        } else {\r\n            require(option.strike >= currentPrice, \"Current price is too high\");\r\n            profit = option.strike.sub(currentPrice).mul(option.optionSize).div(currentPrice);\r\n        }\r\n        if (profit > option.lockedAmount)\r\n            profit = option.lockedAmount;\r\n        lpPools.send(optionID, option.holder, profit);\r\n    }\r\n\r\n    /**\r\n     * @return result Square root of the number\r\n     */\r\n    function sqrt(uint256 x) private pure returns (uint256 result) {\r\n        result = x;\r\n        uint256 k = x.div(2).add(1);\r\n        while (k < result) (result, k) = (k, x.div(k).add(k).div(2));\r\n    }\r\n}\r\n",
  "sourcePath": "C:/Users/scott/source/repos/options-contracts/contracts/ERC20Options.sol",
  "compiler": {
    "name": "solc",
    "version": "0.6.12+commit.27d51765.Emscripten.clang"
  },
  "schemaVersion": "3.3.2",
  "updatedAt": "2021-03-19T06:25:00.847Z",
  "networkType": "ethereum",
  "devdoc": {
    "kind": "dev",
    "methods": {
      "approve(address,uint256)": {
        "details": "See {IERC721-approve}."
      },
      "balanceOf(address)": {
        "details": "See {IERC721-balanceOf}."
      },
      "baseURI()": {
        "details": "Returns the base URI set via {_setBaseURI}. This will be automatically added as a prefix in {tokenURI} to each token's URI, or to the token ID if no specific URI is set for that token ID."
      },
      "create4(address,uint256,uint256,uint256,uint8,uint256)": {
        "params": {
          "optionSize": "Option size",
          "optionType": "Call or Put option type",
          "period": "Option period in seconds (1 days <= period <= 4 weeks)",
          "strike": "Strike price of the option"
        },
        "returns": {
          "optionID": "Created option's ID"
        }
      },
      "exercise(uint256)": {
        "params": {
          "optionID": "ID of your option"
        }
      },
      "getApproved(uint256)": {
        "details": "See {IERC721-getApproved}."
      },
      "isApprovedForAll(address,address)": {
        "details": "See {IERC721-isApprovedForAll}."
      },
      "name()": {
        "details": "See {IERC721Metadata-name}."
      },
      "owner()": {
        "details": "Returns the address of the current owner."
      },
      "ownerOf(uint256)": {
        "details": "See {IERC721-ownerOf}."
      },
      "renounceOwnership()": {
        "details": "Leaves the contract without owner. It will not be possible to call `onlyOwner` functions anymore. Can only be called by the current owner. NOTE: Renouncing ownership will leave the contract without an owner, thereby removing any functionality that is only available to the owner."
      },
      "safeTransferFrom(address,address,uint256)": {
        "details": "See {IERC721-safeTransferFrom}."
      },
      "safeTransferFrom(address,address,uint256,bytes)": {
        "details": "See {IERC721-safeTransferFrom}."
      },
      "setApprovalForAll(address,bool)": {
        "details": "See {IERC721-setApprovalForAll}."
      },
      "setProtocolFeeRecipient(address)": {
        "params": {
          "recipient": "New protocolFeeRecipient recipient address"
        }
      },
      "supportsInterface(bytes4)": {
        "details": "See {IERC165-supportsInterface}. Time complexity O(1), guaranteed to always use less than 30 000 gas."
      },
      "symbol()": {
        "details": "See {IERC721Metadata-symbol}."
      },
      "tokenByIndex(uint256)": {
        "details": "See {IERC721Enumerable-tokenByIndex}."
      },
      "tokenOfOwnerByIndex(address,uint256)": {
        "details": "See {IERC721Enumerable-tokenOfOwnerByIndex}."
      },
      "tokenURI(uint256)": {
        "details": "See {IERC721Metadata-tokenURI}."
      },
      "totalSupply()": {
        "details": "See {IERC721Enumerable-totalSupply}."
      },
      "transfer(uint256,address)": {
        "params": {
          "newHolder": "Address of new option holder",
          "optionID": "ID of your option"
        }
      },
      "transferFrom(address,address,uint256)": {
        "details": "See {IERC721-transferFrom}."
      },
      "transferOwnership(address)": {
        "details": "Transfers ownership of the contract to a new account (`newOwner`). Can only be called by the current owner."
      },
      "unlock(uint256)": {
        "params": {
          "optionID": "ID of the option"
        }
      },
      "unlockAll(uint256[])": {
        "params": {
          "optionIDs": "array of options"
        }
      }
    },
    "title": "Alfabet Options",
    "version": 1
  },
  "userdoc": {
    "kind": "user",
    "methods": {
      "create4(address,uint256,uint256,uint256,uint8,uint256)": {
        "notice": "Creates a new option"
      },
      "exercise(uint256)": {
        "notice": "Exercises an active option"
      },
      "setProtocolFeeRecipient(address)": {
        "notice": "Used for changing protocolFeeRecipient"
      },
      "transfer(uint256,address)": {
        "notice": "Transfers an active option"
      },
      "unlock(uint256)": {
        "notice": "Unlock funds locked in the expired options"
      },
      "unlockAll(uint256[])": {
        "notice": "Unlocks an array of options"
      }
    },
    "version": 1
  }
}