{
  "contractName": "ERC20LiquidityPool",
  "abi": [
    {
      "inputs": [
        {
          "internalType": "contract WriterPool",
          "name": "_writerPool",
          "type": "address"
        }
      ],
      "stateMutability": "nonpayable",
      "type": "constructor"
    },
    {
      "anonymous": false,
      "inputs": [
        {
          "indexed": true,
          "internalType": "uint256",
          "name": "marketId",
          "type": "uint256"
        },
        {
          "indexed": false,
          "internalType": "contract AggregatorV3Interface",
          "name": "priceProvider",
          "type": "address"
        },
        {
          "indexed": false,
          "internalType": "contract IERC20",
          "name": "pool",
          "type": "address"
        }
      ],
      "name": "CreateMarket",
      "type": "event"
    },
    {
      "anonymous": false,
      "inputs": [
        {
          "indexed": true,
          "internalType": "uint256",
          "name": "optionId",
          "type": "uint256"
        },
        {
          "indexed": false,
          "internalType": "contract IERC20",
          "name": "pool",
          "type": "address"
        },
        {
          "indexed": false,
          "internalType": "uint256",
          "name": "amount",
          "type": "uint256"
        }
      ],
      "name": "Loss",
      "type": "event"
    },
    {
      "anonymous": false,
      "inputs": [
        {
          "indexed": true,
          "internalType": "address",
          "name": "previousOwner",
          "type": "address"
        },
        {
          "indexed": true,
          "internalType": "address",
          "name": "newOwner",
          "type": "address"
        }
      ],
      "name": "OwnershipTransferred",
      "type": "event"
    },
    {
      "anonymous": false,
      "inputs": [
        {
          "indexed": true,
          "internalType": "uint256",
          "name": "optionId",
          "type": "uint256"
        },
        {
          "indexed": false,
          "internalType": "contract IERC20",
          "name": "pool",
          "type": "address"
        },
        {
          "indexed": false,
          "internalType": "uint256",
          "name": "amount",
          "type": "uint256"
        }
      ],
      "name": "Profit",
      "type": "event"
    },
    {
      "anonymous": false,
      "inputs": [
        {
          "indexed": true,
          "internalType": "address",
          "name": "account",
          "type": "address"
        },
        {
          "indexed": false,
          "internalType": "contract IERC20",
          "name": "pool",
          "type": "address"
        },
        {
          "indexed": false,
          "internalType": "uint256",
          "name": "amount",
          "type": "uint256"
        },
        {
          "indexed": false,
          "internalType": "uint256",
          "name": "writeAmount",
          "type": "uint256"
        }
      ],
      "name": "Provide",
      "type": "event"
    },
    {
      "anonymous": false,
      "inputs": [
        {
          "indexed": true,
          "internalType": "address",
          "name": "account",
          "type": "address"
        },
        {
          "indexed": false,
          "internalType": "contract IERC20",
          "name": "pool",
          "type": "address"
        },
        {
          "indexed": false,
          "internalType": "uint256",
          "name": "amount",
          "type": "uint256"
        },
        {
          "indexed": false,
          "internalType": "uint256",
          "name": "writeAmount",
          "type": "uint256"
        }
      ],
      "name": "Withdraw",
      "type": "event"
    },
    {
      "inputs": [],
      "name": "INITIAL_RATE",
      "outputs": [
        {
          "internalType": "uint256",
          "name": "",
          "type": "uint256"
        }
      ],
      "stateMutability": "view",
      "type": "function",
      "constant": true
    },
    {
      "inputs": [
        {
          "internalType": "uint256",
          "name": "",
          "type": "uint256"
        }
      ],
      "name": "PRICE_DECIMALS",
      "outputs": [
        {
          "internalType": "uint256",
          "name": "",
          "type": "uint256"
        }
      ],
      "stateMutability": "view",
      "type": "function",
      "constant": true
    },
    {
      "inputs": [
        {
          "internalType": "uint256",
          "name": "",
          "type": "uint256"
        }
      ],
      "name": "collateralizationRatio",
      "outputs": [
        {
          "internalType": "uint256",
          "name": "",
          "type": "uint256"
        }
      ],
      "stateMutability": "view",
      "type": "function",
      "constant": true
    },
    {
      "inputs": [
        {
          "internalType": "uint256",
          "name": "",
          "type": "uint256"
        }
      ],
      "name": "collatoralToken",
      "outputs": [
        {
          "internalType": "contract IERC20",
          "name": "",
          "type": "address"
        }
      ],
      "stateMutability": "view",
      "type": "function",
      "constant": true
    },
    {
      "inputs": [
        {
          "internalType": "contract IERC20",
          "name": "",
          "type": "address"
        }
      ],
      "name": "initialised",
      "outputs": [
        {
          "internalType": "bool",
          "name": "",
          "type": "bool"
        }
      ],
      "stateMutability": "view",
      "type": "function",
      "constant": true
    },
    {
      "inputs": [
        {
          "internalType": "contract IERC20",
          "name": "",
          "type": "address"
        },
        {
          "internalType": "address",
          "name": "",
          "type": "address"
        }
      ],
      "name": "lastProvideTimestamp",
      "outputs": [
        {
          "internalType": "uint256",
          "name": "",
          "type": "uint256"
        }
      ],
      "stateMutability": "view",
      "type": "function",
      "constant": true
    },
    {
      "inputs": [
        {
          "internalType": "contract IERC20",
          "name": "",
          "type": "address"
        }
      ],
      "name": "lockedAmount",
      "outputs": [
        {
          "internalType": "uint256",
          "name": "",
          "type": "uint256"
        }
      ],
      "stateMutability": "view",
      "type": "function",
      "constant": true
    },
    {
      "inputs": [
        {
          "internalType": "uint256",
          "name": "",
          "type": "uint256"
        }
      ],
      "name": "lockedLiquidity",
      "outputs": [
        {
          "internalType": "uint256",
          "name": "amount",
          "type": "uint256"
        },
        {
          "internalType": "uint256",
          "name": "premium",
          "type": "uint256"
        },
        {
          "internalType": "bool",
          "name": "locked",
          "type": "bool"
        },
        {
          "internalType": "contract IERC20",
          "name": "pool",
          "type": "address"
        },
        {
          "internalType": "enum IOptions.OptionType",
          "name": "optionType",
          "type": "uint8"
        }
      ],
      "stateMutability": "view",
      "type": "function",
      "constant": true
    },
    {
      "inputs": [
        {
          "internalType": "contract IERC20",
          "name": "",
          "type": "address"
        }
      ],
      "name": "lockedPremiumCall",
      "outputs": [
        {
          "internalType": "uint256",
          "name": "",
          "type": "uint256"
        }
      ],
      "stateMutability": "view",
      "type": "function",
      "constant": true
    },
    {
      "inputs": [
        {
          "internalType": "contract IERC20",
          "name": "",
          "type": "address"
        }
      ],
      "name": "lockedPremiumPut",
      "outputs": [
        {
          "internalType": "uint256",
          "name": "",
          "type": "uint256"
        }
      ],
      "stateMutability": "view",
      "type": "function",
      "constant": true
    },
    {
      "inputs": [
        {
          "internalType": "contract IERC20",
          "name": "",
          "type": "address"
        }
      ],
      "name": "lockupPeriod",
      "outputs": [
        {
          "internalType": "uint256",
          "name": "",
          "type": "uint256"
        }
      ],
      "stateMutability": "view",
      "type": "function",
      "constant": true
    },
    {
      "inputs": [
        {
          "internalType": "contract IERC20",
          "name": "",
          "type": "address"
        }
      ],
      "name": "maxInvest",
      "outputs": [
        {
          "internalType": "uint256",
          "name": "",
          "type": "uint256"
        }
      ],
      "stateMutability": "view",
      "type": "function",
      "constant": true
    },
    {
      "inputs": [],
      "name": "optionMarketCount",
      "outputs": [
        {
          "internalType": "uint256",
          "name": "",
          "type": "uint256"
        }
      ],
      "stateMutability": "view",
      "type": "function",
      "constant": true
    },
    {
      "inputs": [],
      "name": "owner",
      "outputs": [
        {
          "internalType": "address",
          "name": "",
          "type": "address"
        }
      ],
      "stateMutability": "view",
      "type": "function",
      "constant": true
    },
    {
      "inputs": [
        {
          "internalType": "uint256",
          "name": "",
          "type": "uint256"
        }
      ],
      "name": "priceProvider",
      "outputs": [
        {
          "internalType": "contract AggregatorV3Interface",
          "name": "",
          "type": "address"
        }
      ],
      "stateMutability": "view",
      "type": "function",
      "constant": true
    },
    {
      "inputs": [],
      "name": "renounceOwnership",
      "outputs": [],
      "stateMutability": "nonpayable",
      "type": "function"
    },
    {
      "inputs": [
        {
          "internalType": "uint256",
          "name": "",
          "type": "uint256"
        }
      ],
      "name": "tokenPool",
      "outputs": [
        {
          "internalType": "contract IERC20",
          "name": "",
          "type": "address"
        }
      ],
      "stateMutability": "view",
      "type": "function",
      "constant": true
    },
    {
      "inputs": [],
      "name": "tokenPoolCount",
      "outputs": [
        {
          "internalType": "uint256",
          "name": "",
          "type": "uint256"
        }
      ],
      "stateMutability": "view",
      "type": "function",
      "constant": true
    },
    {
      "inputs": [
        {
          "internalType": "contract IERC20",
          "name": "",
          "type": "address"
        }
      ],
      "name": "totalSupply",
      "outputs": [
        {
          "internalType": "uint256",
          "name": "",
          "type": "uint256"
        }
      ],
      "stateMutability": "view",
      "type": "function",
      "constant": true
    },
    {
      "inputs": [
        {
          "internalType": "address",
          "name": "newOwner",
          "type": "address"
        }
      ],
      "name": "transferOwnership",
      "outputs": [],
      "stateMutability": "nonpayable",
      "type": "function"
    },
    {
      "inputs": [],
      "name": "writerPool",
      "outputs": [
        {
          "internalType": "contract WriterPool",
          "name": "",
          "type": "address"
        }
      ],
      "stateMutability": "view",
      "type": "function",
      "constant": true
    },
    {
      "inputs": [
        {
          "internalType": "contract IERC20",
          "name": "",
          "type": "address"
        }
      ],
      "name": "writerPoolPos",
      "outputs": [
        {
          "internalType": "uint256",
          "name": "",
          "type": "uint256"
        }
      ],
      "stateMutability": "view",
      "type": "function",
      "constant": true
    },
    {
      "inputs": [
        {
          "internalType": "contract AggregatorV3Interface",
          "name": "_priceProvider",
          "type": "address"
        },
        {
          "internalType": "contract ERC20",
          "name": "_token",
          "type": "address"
        }
      ],
      "name": "createMarket",
      "outputs": [],
      "stateMutability": "nonpayable",
      "type": "function"
    },
    {
      "inputs": [
        {
          "internalType": "contract IERC20",
          "name": "_token",
          "type": "address"
        },
        {
          "internalType": "uint256",
          "name": "value",
          "type": "uint256"
        }
      ],
      "name": "setLockupPeriod",
      "outputs": [],
      "stateMutability": "nonpayable",
      "type": "function"
    },
    {
      "inputs": [
        {
          "internalType": "contract IERC20",
          "name": "_token",
          "type": "address"
        },
        {
          "internalType": "uint256",
          "name": "_maxInvest",
          "type": "uint256"
        }
      ],
      "name": "setMaxInvest",
      "outputs": [],
      "stateMutability": "nonpayable",
      "type": "function"
    },
    {
      "inputs": [
        {
          "internalType": "uint256",
          "name": "value",
          "type": "uint256"
        },
        {
          "internalType": "uint256",
          "name": "optionMarketId",
          "type": "uint256"
        }
      ],
      "name": "setCollaterizationRatio",
      "outputs": [],
      "stateMutability": "nonpayable",
      "type": "function"
    },
    {
      "inputs": [
        {
          "internalType": "uint256",
          "name": "id",
          "type": "uint256"
        },
        {
          "internalType": "uint256",
          "name": "amount",
          "type": "uint256"
        },
        {
          "internalType": "uint256",
          "name": "premium",
          "type": "uint256"
        },
        {
          "internalType": "contract IERC20",
          "name": "token",
          "type": "address"
        },
        {
          "internalType": "enum IOptions.OptionType",
          "name": "optionType",
          "type": "uint8"
        }
      ],
      "name": "lock",
      "outputs": [],
      "stateMutability": "nonpayable",
      "type": "function"
    },
    {
      "inputs": [
        {
          "internalType": "uint256",
          "name": "id",
          "type": "uint256"
        }
      ],
      "name": "unlock",
      "outputs": [],
      "stateMutability": "nonpayable",
      "type": "function"
    },
    {
      "inputs": [
        {
          "internalType": "uint256",
          "name": "id",
          "type": "uint256"
        },
        {
          "internalType": "address payable",
          "name": "to",
          "type": "address"
        },
        {
          "internalType": "uint256",
          "name": "amount",
          "type": "uint256"
        }
      ],
      "name": "send",
      "outputs": [],
      "stateMutability": "nonpayable",
      "type": "function"
    },
    {
      "inputs": [
        {
          "internalType": "contract IERC20",
          "name": "token",
          "type": "address"
        }
      ],
      "name": "totalBalance",
      "outputs": [
        {
          "internalType": "uint256",
          "name": "",
          "type": "uint256"
        }
      ],
      "stateMutability": "view",
      "type": "function",
      "constant": true
    },
    {
      "inputs": [
        {
          "internalType": "contract IERC20",
          "name": "token",
          "type": "address"
        },
        {
          "internalType": "uint256",
          "name": "newAmount",
          "type": "uint256"
        }
      ],
      "name": "proportionLocked",
      "outputs": [
        {
          "internalType": "uint256",
          "name": "",
          "type": "uint256"
        }
      ],
      "stateMutability": "view",
      "type": "function",
      "constant": true
    },
    {
      "inputs": [
        {
          "internalType": "contract IERC20",
          "name": "token",
          "type": "address"
        },
        {
          "internalType": "uint256",
          "name": "newAmount",
          "type": "uint256"
        }
      ],
      "name": "putBalanceFactor",
      "outputs": [
        {
          "internalType": "uint256",
          "name": "",
          "type": "uint256"
        }
      ],
      "stateMutability": "view",
      "type": "function",
      "constant": true
    },
    {
      "inputs": [
        {
          "internalType": "contract IERC20",
          "name": "token",
          "type": "address"
        },
        {
          "internalType": "uint256",
          "name": "newAmount",
          "type": "uint256"
        }
      ],
      "name": "callBalanceFactor",
      "outputs": [
        {
          "internalType": "uint256",
          "name": "",
          "type": "uint256"
        }
      ],
      "stateMutability": "view",
      "type": "function",
      "constant": true
    },
    {
      "inputs": [
        {
          "internalType": "contract IERC20",
          "name": "token",
          "type": "address"
        }
      ],
      "name": "lockedPremium",
      "outputs": [
        {
          "internalType": "uint256",
          "name": "",
          "type": "uint256"
        }
      ],
      "stateMutability": "view",
      "type": "function",
      "constant": true
    },
    {
      "inputs": [
        {
          "internalType": "contract IERC20",
          "name": "token",
          "type": "address"
        }
      ],
      "name": "putRatio",
      "outputs": [
        {
          "internalType": "uint256",
          "name": "",
          "type": "uint256"
        }
      ],
      "stateMutability": "view",
      "type": "function",
      "constant": true
    },
    {
      "inputs": [
        {
          "internalType": "contract IERC20",
          "name": "token",
          "type": "address"
        }
      ],
      "name": "callRatio",
      "outputs": [
        {
          "internalType": "uint256",
          "name": "",
          "type": "uint256"
        }
      ],
      "stateMutability": "view",
      "type": "function",
      "constant": true
    },
    {
      "inputs": [
        {
          "internalType": "uint256",
          "name": "amount",
          "type": "uint256"
        },
        {
          "internalType": "uint256",
          "name": "minMint",
          "type": "uint256"
        },
        {
          "internalType": "contract IERC20",
          "name": "token",
          "type": "address"
        }
      ],
      "name": "provide",
      "outputs": [
        {
          "internalType": "uint256",
          "name": "mint",
          "type": "uint256"
        }
      ],
      "stateMutability": "nonpayable",
      "type": "function"
    },
    {
      "inputs": [
        {
          "internalType": "uint256",
          "name": "amount",
          "type": "uint256"
        },
        {
          "internalType": "uint256",
          "name": "maxBurn",
          "type": "uint256"
        },
        {
          "internalType": "contract IERC20",
          "name": "token",
          "type": "address"
        }
      ],
      "name": "withdraw",
      "outputs": [
        {
          "internalType": "uint256",
          "name": "burn",
          "type": "uint256"
        }
      ],
      "stateMutability": "nonpayable",
      "type": "function"
    },
    {
      "inputs": [
        {
          "internalType": "address",
          "name": "user",
          "type": "address"
        },
        {
          "internalType": "contract IERC20",
          "name": "token",
          "type": "address"
        }
      ],
      "name": "writerBalanceOf",
      "outputs": [
        {
          "internalType": "uint256",
          "name": "share",
          "type": "uint256"
        }
      ],
      "stateMutability": "view",
      "type": "function",
      "constant": true
    },
    {
      "inputs": [
        {
          "internalType": "address",
          "name": "user",
          "type": "address"
        },
        {
          "internalType": "contract IERC20",
          "name": "token",
          "type": "address"
        }
      ],
      "name": "shareOf",
      "outputs": [
        {
          "internalType": "uint256",
          "name": "share",
          "type": "uint256"
        }
      ],
      "stateMutability": "view",
      "type": "function",
      "constant": true
    },
    {
      "inputs": [
        {
          "internalType": "contract IERC20",
          "name": "token",
          "type": "address"
        }
      ],
      "name": "availableBalance",
      "outputs": [
        {
          "internalType": "uint256",
          "name": "",
          "type": "uint256"
        }
      ],
      "stateMutability": "view",
      "type": "function",
      "constant": true
    }
  ],
  "bytecode": "0x60806040526000600b55600060125534801561001a57600080fd5b5060405162002bb338038062002bb38339818101604052602081101561003f57600080fd5b5051600061004b6100ba565b600080546001600160a01b0319166001600160a01b0383169081178255604051929350917f8be0079c531659141344cd1fd0a4f28419497f9722a3daafe3b4186f6b6457e0908290a350600d80546001600160a01b0319166001600160a01b03929092169190911790556100be565b3390565b612ae580620000ce6000396000f3fe608060405234801561001057600080fd5b50600436106102535760003560e01c806382e03ed311610146578063b5f0b689116100c3578063d83253a411610087578063d83253a4146107b8578063e4dc2aa4146107de578063e8a6561514610804578063ebd4e1b414610830578063f2fde38b14610838578063f814b4ff1461085e57610253565b8063b5f0b689146106f7578063b767ea971461071d578063b9807f2b14610743578063c40c11bb1461076f578063cf841afa1461078c57610253565b8063a153e7081161010a578063a153e7081461062b578063a5f9802714610651578063a755b6a314610677578063acd5d458146106a3578063b347342d146106d157610253565b806382e03ed31461059e5780638da5cb5b146105a65780639c74ebf4146105ae5780639e881873146105e8578063a0821be31461060557610253565b806337ffbb48116101d457806367364b1d1161019857806367364b1d146104cf5780636da18a63146104fd5780636eacd3981461053e578063715018a61461056457806381b34f151461056c57610253565b806337ffbb4814610441578063415a12711461045e5780634dbac733146104845780636198e3391461048c57806363fac07e146104a957610253565b80631343e9701161021b5780631343e9701461034a578063207fd126146103785780632be321e6146103a857806332944f09146103d45780633755269b146103dc57610253565b80630757cb1d1461025857806307c7b4a7146102905780630ad58d2f146102ad5780630c4cb978146102df5780630eb9776014610311575b600080fd5b61027e6004803603602081101561026e57600080fd5b50356001600160a01b0316610881565b60408051918252519081900360200190f35b61027e600480360360208110156102a657600080fd5b5035610893565b61027e600480360360608110156102c357600080fd5b50803590602081013590604001356001600160a01b03166108a5565b61027e600480360360608110156102f557600080fd5b50803590602081013590604001356001600160a01b0316610d00565b61032e6004803603602081101561032757600080fd5b5035611074565b604080516001600160a01b039092168252519081900360200190f35b61027e6004803603604081101561036057600080fd5b506001600160a01b038135811691602001351661108f565b6103a66004803603604081101561038e57600080fd5b506001600160a01b03813581169160200135166110ac565b005b61027e600480360360408110156103be57600080fd5b506001600160a01b03813516906020013561123a565b61027e611284565b6103f9600480360360208110156103f257600080fd5b503561128a565b604051808681526020018581526020018415158152602001836001600160a01b0316815260200182600281111561042c57fe5b81526020019550505050505060405180910390f35b61027e6004803603602081101561045757600080fd5b50356112d8565b61027e6004803603602081101561047457600080fd5b50356001600160a01b03166112ea565b61027e6112fc565b6103a6600480360360208110156104a257600080fd5b5035611308565b61027e600480360360208110156104bf57600080fd5b50356001600160a01b031661153e565b61027e600480360360408110156104e557600080fd5b506001600160a01b03813581169160200135166115cf565b6103a6600480360360a081101561051357600080fd5b5080359060208101359060408101359060608101356001600160a01b0316906080013560ff16611666565b61027e6004803603602081101561055457600080fd5b50356001600160a01b0316611932565b6103a66119d5565b6103a66004803603606081101561058257600080fd5b508035906001600160a01b036020820135169060400135611a77565b61032e611d68565b61032e611d77565b6105d4600480360360208110156105c457600080fd5b50356001600160a01b0316611d86565b604080519115158252519081900360200190f35b61032e600480360360208110156105fe57600080fd5b5035611d9b565b61027e6004803603602081101561061b57600080fd5b50356001600160a01b0316611db6565b61027e6004803603602081101561064157600080fd5b50356001600160a01b0316611ddc565b61027e6004803603602081101561066757600080fd5b50356001600160a01b0316611dee565b6103a66004803603604081101561068d57600080fd5b506001600160a01b038135169060200135611e00565b61027e600480360360408110156106b957600080fd5b506001600160a01b0381358116916020013516611e74565b61027e600480360360208110156106e757600080fd5b50356001600160a01b0316611f45565b61027e6004803603602081101561070d57600080fd5b50356001600160a01b0316611f57565b61027e6004803603602081101561073357600080fd5b50356001600160a01b0316611f84565b61027e6004803603604081101561075957600080fd5b506001600160a01b038135169060200135611ff8565b61032e6004803603602081101561078557600080fd5b5035612128565b6103a6600480360360408110156107a257600080fd5b506001600160a01b038135169060200135612143565b61027e600480360360208110156107ce57600080fd5b50356001600160a01b03166121b7565b61027e600480360360208110156107f457600080fd5b50356001600160a01b03166121c9565b61027e6004803603604081101561081a57600080fd5b506001600160a01b0381351690602001356121db565b61027e612216565b6103a66004803603602081101561084e57600080fd5b50356001600160a01b031661221c565b6103a66004803603604081101561087457600080fd5b5080359060200135612314565b60036020526000908152604090205481565b60116020526000908152604090205481565b6001600160a01b0381166000908152600960209081526040808320546005835281842033855290925282205442916108dd91906123d0565b1115610930576040805162461bcd60e51b815260206004820152601d60248201527f506f6f6c3a205769746864726177616c206973206c6f636b6564207570000000604482015290519081900360640190fd5b61093982611db6565b8411156109775760405162461bcd60e51b81526004018080602001828103825260718152602001806129f56071913960800191505060405180910390fd5b6109ad61098383611932565b6001600160a01b0384166000908152600660205260409020546109a790879061242a565b90612483565b905082811115610a04576040805162461bcd60e51b815260206004820152601d60248201527f506f6f6c3a204275726e206c696d697420697320746f6f20736d616c6c000000604482015290519081900360640190fd5b600d546001600160a01b03838116600090815260076020908152604091829020548251627eeac760e11b815233600482015260248101919091529151929093169262fdd58e92604480840193829003018186803b158015610a6457600080fd5b505afa158015610a78573d6000803e3d6000fd5b505050506040513d6020811015610a8e57600080fd5b5051811115610ae4576040805162461bcd60e51b815260206004820152601960248201527f506f6f6c3a20416d6f756e7420697320746f6f206c6172676500000000000000604482015290519081900360640190fd5b60008111610b35576040805162461bcd60e51b8152602060048201526019602482015278141bdbdb0e88105b5bdd5b9d081a5cc81d1bdbc81cdb585b1b603a1b604482015290519081900360640190fd5b600d546001600160a01b03838116600090815260076020526040808220548151637a94c56560e11b81523360048201526024810191909152604481018690529051929093169263f5298aca926064808301939282900301818387803b158015610b9d57600080fd5b505af1158015610bb1573d6000803e3d6000fd5b5050506001600160a01b038316600090815260066020526040902054610bd89150826124c5565b6001600160a01b038316600081815260066020908152604091829020939093558051918252918101869052808201839052905133917ff341246adaac6f497bc2a656f546ab9e182111d630394f0c57c710a59a2cb567919081900360600190a26040805163a9059cbb60e01b81523360048201526024810186905290516001600160a01b0384169163a9059cbb9160448083019260209291908290030181600087803b158015610c8757600080fd5b505af1158015610c9b573d6000803e3d6000fd5b505050506040513d6020811015610cb157600080fd5b5051610cf9576040805162461bcd60e51b8152602060048201526012602482015271496e73756666696369656e742066756e647360701b604482015290519081900360640190fd5b9392505050565b6001600160a01b03811660008181526005602090815260408083203384528252808320429055928252600690529081205481610d3b84611932565b9050600082118015610d4d5750600081115b15610d6757610d60816109a7888561242a565b9250610d7c565b610d7986670de0b6b3a764000061242a565b92505b84831015610dd1576040805162461bcd60e51b815260206004820152601d60248201527f506f6f6c3a204d696e74206c696d697420697320746f6f206c61726765000000604482015290519081900360640190fd5b60008311610e22576040805162461bcd60e51b8152602060048201526019602482015278141bdbdb0e88105b5bdd5b9d081a5cc81d1bdbc81cdb585b1b603a1b604482015290519081900360640190fd5b85846001600160a01b03166370a08231336040518263ffffffff1660e01b815260040180826001600160a01b0316815260200191505060206040518083038186803b158015610e7057600080fd5b505afa158015610e84573d6000803e3d6000fd5b505050506040513d6020811015610e9a57600080fd5b50511015610ed95760405162461bcd60e51b81526004018080602001828103825260508152602001806129846050913960600191505060405180910390fd5b6001600160a01b0384166000908152600860205260409020548610610f45576040805162461bcd60e51b815260206004820152601860248201527f4d617820696e76657374206c696d697420726561636865640000000000000000604482015290519081900360640190fd5b610f5a6001600160a01b038516333089612507565b600d546001600160a01b0385811660009081526007602052604080822054815163731133e960e01b815233600482015260248101919091526044810188905260806064820152608481018390529051929093169263731133e99260c4808301939282900301818387803b158015610fd057600080fd5b505af1158015610fe4573d6000803e3d6000fd5b5050506001600160a01b03851660009081526006602052604090205461100b9150846123d0565b6001600160a01b038516600081815260066020908152604091829020939093558051918252918101889052808201859052905133917f9675a307d5dddc49aefd66964913e794711b6c69e23cfe1fa44406ab2bbaeae8919081900360600190a250509392505050565b600f602052600090815260409020546001600160a01b031681565b600560209081526000928352604080842090915290825290205481565b6110b4612567565b6000546001600160a01b03908116911614611104576040805162461bcd60e51b81526020600482018190526024820152600080516020612a66833981519152604482015290519081900360640190fd5b601280546000908152600e6020908152604080832080546001600160a01b038089166001600160a01b03199283161790925585548552600f84528285208054928816929091168217905584548452601083528184206305f5e10090559354835260118252808320612710905592825260019052205460ff166111e557600b80546001600160a01b0383166000818152600760209081526040808320949094556001808252848320805460ff1916821790556009825284832062127500905585548352600a90915292902080546001600160a01b031916909117905581540190555b601254604080516001600160a01b0380861682528416602082015281517ff7c0db0f1a89f6a1e2bd02e383fe6f9a1f37fd19e1d24558ab7db172208a904f929181900390910190a25050601280546001019055565b600061127b61124884611f57565b6001600160a01b0385166000908152600360205260409020546109a790633b9aca009061127590876123d0565b9061242a565b90505b92915050565b60125481565b600c818154811061129757fe5b600091825260209091206003909102018054600182015460029092015490925060ff808216916001600160a01b0361010082041691600160a81b9091041685565b60106020526000908152604090205481565b60086020526000908152604090205481565b670de0b6b3a764000081565b611310612567565b6000546001600160a01b03908116911614611360576040805162461bcd60e51b81526020600482018190526024820152600080516020612a66833981519152604482015290519081900360640190fd5b6000600c828154811061136f57fe5b60009182526020909120600390910201600281015490915060ff166113c55760405162461bcd60e51b815260040180806020018281038252603181526020018061292d6031913960400191505060405180910390fd5b60028101805460ff191690556001600282810154600160a81b900460ff16908111156113ed57fe5b141561144a576001810154600282015461010090046001600160a01b0316600090815260046020526040902054611423916124c5565b600282015461010090046001600160a01b031660009081526004602052604090205561149d565b6001810154600282015461010090046001600160a01b031660009081526003602052604090205461147a916124c5565b600282015461010090046001600160a01b03166000908152600360205260409020555b805460028083015461010090046001600160a01b0316600090815260209190915260409020546114cc916124c5565b600282810180546001600160a01b03610100918290048116600090815260209485526040908190209590955591546001860154855192909104909216815291820152815184927f7e03bdd0e9b8bf3d240014b9fd4ef67cd0e8548f8551668b9668d0898d4ab1df928290030190a25050565b600061154982611f57565b611559575064012a05f2006115ca565b6001600160a01b03821660009081526003602090815260408083205460049092528220546115b29161158b91906123d0565b6001600160a01b0385166000908152600460205260409020546109a790633b9aca0061242a565b905060008112156115c75760009150506115ca565b90505b919050565b600d546001600160a01b038281166000908152600760209081526040808320548151627eeac760e11b81528886166004820152602481019190915290519294939093169262fdd58e9260448083019392829003018186803b15801561163357600080fd5b505afa158015611647573d6000803e3d6000fd5b505050506040513d602081101561165d57600080fd5b50519392505050565b61166e612567565b6000546001600160a01b039081169116146116be576040805162461bcd60e51b81526020600482018190526024820152600080516020612a66833981519152604482015290519081900360640190fd5b600c5485146116ff576040805162461bcd60e51b815260206004820152600860248201526715dc9bdb99c81a5960c21b604482015290519081900360640190fd5b61170882611932565b6001600160a01b03831660009081526002602052604090205461172b90866123d0565b111561177e576040805162461bcd60e51b815260206004820181905260248201527f506f6f6c204572726f723a20416d6f756e7420697320746f6f206c617267652e604482015290519081900360640190fd5b600c6040518060a00160405280868152602001858152602001600115158152602001846001600160a01b031681526020018360028111156117bb57fe5b905281546001818101845560009384526020938490208351600390930201918255928201519281019290925560408101516002808401805460608501516001600160a01b031661010002610100600160a81b031994151560ff199092169190911793909316929092178083556080840151939493929160ff60a81b1990911690600160a81b90849081111561184c57fe5b02179055506001915061185c9050565b81600281111561186857fe5b14156118af576001600160a01b03821660009081526004602052604090205461189190846123d0565b6001600160a01b0383166000908152600460205260409020556118ec565b6001600160a01b0382166000908152600360205260409020546118d290846123d0565b6001600160a01b0383166000908152600360205260409020555b6001600160a01b03821660009081526002602052604090205461190f90856123d0565b6001600160a01b0390921660009081526002602052604090209190915550505050565b6001600160a01b03811660008181526003602090815260408083205460048084528285205483516370a0823160e01b81523092810192909252925194956115c79592946119cf949391926370a082319260248083019392829003018186803b15801561199d57600080fd5b505afa1580156119b1573d6000803e3d6000fd5b505050506040513d60208110156119c757600080fd5b5051906124c5565b906124c5565b6119dd612567565b6000546001600160a01b03908116911614611a2d576040805162461bcd60e51b81526020600482018190526024820152600080516020612a66833981519152604482015290519081900360640190fd5b600080546040516001600160a01b03909116907f8be0079c531659141344cd1fd0a4f28419497f9722a3daafe3b4186f6b6457e0908390a3600080546001600160a01b0319169055565b611a7f612567565b6000546001600160a01b03908116911614611acf576040805162461bcd60e51b81526020600482018190526024820152600080516020612a66833981519152604482015290519081900360640190fd5b6000600c8481548110611ade57fe5b60009182526020909120600390910201600281015490915060ff16611b345760405162461bcd60e51b815260040180806020018281038252603181526020018061292d6031913960400191505060405180910390fd5b6001600160a01b038316611b4757600080fd5b60028101805460ff191690556001600282810154600160a81b900460ff1690811115611b6f57fe5b1415611bcc576001810154600282015461010090046001600160a01b0316600090815260046020526040902054611ba5916124c5565b600282015461010090046001600160a01b0316600090815260046020526040902055611c1f565b6001810154600282015461010090046001600160a01b0316600090815260036020526040902054611bfc916124c5565b600282015461010090046001600160a01b03166000908152600360205260409020555b805460028083015461010090046001600160a01b031660009081526020919091526040902054611c4e916124c5565b60028281015461010090046001600160a01b03166000908152602091909152604081209190915581548311611c835782611c86565b81545b6002830154909150611ca79061010090046001600160a01b0316858361256b565b81600101548111611d0c5760028201546001830154604080516101009093046001600160a01b03168352908390036020830152805187927f7e03bdd0e9b8bf3d240014b9fd4ef67cd0e8548f8551668b9668d0898d4ab1df92908290030190a2611d61565b60028201546001830154604080516101009093046001600160a01b031683529083036020830152805187927f9e654f0f9f8ccc64176a250042f275a50ccc164705becdf35ac9d4d4f35cca0892908290030190a25b5050505050565b600d546001600160a01b031681565b6000546001600160a01b031690565b60016020526000908152604090205460ff1681565b600e602052600090815260409020546001600160a01b031681565b6001600160a01b0381166000908152600260205260408120546115c7906119cf84611932565b60026020526000908152604090205481565b60096020526000908152604090205481565b611e08612567565b6000546001600160a01b03908116911614611e58576040805162461bcd60e51b81526020600482018190526024820152600080516020612a66833981519152604482015290519081900360640190fd5b6001600160a01b03909116600090815260096020526040902055565b6001600160a01b0381166000908152600660205260408120548015611f3957600d546001600160a01b03848116600090815260076020908152604091829020548251627eeac760e11b8152898516600482015260248101919091529151611f329486946109a79491169262fdd58e92604480840193829003018186803b158015611efd57600080fd5b505afa158015611f11573d6000803e3d6000fd5b505050506040513d6020811015611f2757600080fd5b505161127587611932565b9150611f3e565b600091505b5092915050565b60076020526000908152604090205481565b6001600160a01b03811660009081526003602090815260408083205460049092528220546115c7916123d0565b6000611f8f82611f57565b611f9f575064012a05f2006115ca565b6001600160a01b03821660009081526003602090815260408083205460049092528220546115b291611fd191906123d0565b6001600160a01b0385166000908152600360205260409020546109a790633b9aca0061242a565b6000826001600160a01b03166370a08231306040518263ffffffff1660e01b815260040180826001600160a01b0316815260200191505060206040518083038186803b15801561204757600080fd5b505afa15801561205b573d6000803e3d6000fd5b505050506040513d602081101561207157600080fd5b505161207f5750600061127e565b61127b836001600160a01b03166370a08231306040518263ffffffff1660e01b815260040180826001600160a01b0316815260200191505060206040518083038186803b1580156120cf57600080fd5b505afa1580156120e3573d6000803e3d6000fd5b505050506040513d60208110156120f957600080fd5b50516001600160a01b0385166000908152600260205260409020546109a790633b9aca009061127590876123d0565b600a602052600090815260409020546001600160a01b031681565b61214b612567565b6000546001600160a01b0390811691161461219b576040805162461bcd60e51b81526020600482018190526024820152600080516020612a66833981519152604482015290519081900360640190fd5b6001600160a01b03909116600090815260086020526040902055565b60046020526000908152604090205481565b60066020526000908152604090205481565b600061127b6121e984611f57565b6001600160a01b0385166000908152600460205260409020546109a790633b9aca009061127590876123d0565b600b5481565b612224612567565b6000546001600160a01b03908116911614612274576040805162461bcd60e51b81526020600482018190526024820152600080516020612a66833981519152604482015290519081900360640190fd5b6001600160a01b0381166122b95760405162461bcd60e51b815260040180806020018281038252602681526020018061295e6026913960400191505060405180910390fd5b600080546040516001600160a01b03808516939216917f8be0079c531659141344cd1fd0a4f28419497f9722a3daafe3b4186f6b6457e091a3600080546001600160a01b0319166001600160a01b0392909216919091179055565b61231c612567565b6000546001600160a01b0390811691161461236c576040805162461bcd60e51b81526020600482018190526024820152600080516020612a66833981519152604482015290519081900360640190fd5b816113881115801561238057506127108211155b6123bf576040805162461bcd60e51b815260206004820152600b60248201526a77726f6e672076616c756560a81b604482015290519081900360640190fd5b600090815260116020526040902055565b60008282018381101561127b576040805162461bcd60e51b815260206004820152601b60248201527f536166654d6174683a206164646974696f6e206f766572666c6f770000000000604482015290519081900360640190fd5b6000826124395750600061127e565b8282028284828161244657fe5b041461127b5760405162461bcd60e51b81526004018080602001828103825260218152602001806129d46021913960400191505060405180910390fd5b600061127b83836040518060400160405280601a81526020017f536166654d6174683a206469766973696f6e206279207a65726f0000000000008152506125c2565b600061127b83836040518060400160405280601e81526020017f536166654d6174683a207375627472616374696f6e206f766572666c6f770000815250612664565b604080516001600160a01b0380861660248301528416604482015260648082018490528251808303909101815260849091019091526020810180516001600160e01b03166323b872dd60e01b1790526125619085906126be565b50505050565b3390565b604080516001600160a01b038416602482015260448082018490528251808303909101815260649091019091526020810180516001600160e01b031663a9059cbb60e01b1790526125bd9084906126be565b505050565b6000818361264e5760405162461bcd60e51b81526004018080602001828103825283818151815260200191508051906020019080838360005b838110156126135781810151838201526020016125fb565b50505050905090810190601f1680156126405780820380516001836020036101000a031916815260200191505b509250505060405180910390fd5b50600083858161265a57fe5b0495945050505050565b600081848411156126b65760405162461bcd60e51b81526020600482018181528351602484015283519092839260449091019190850190808383600083156126135781810151838201526020016125fb565b505050900390565b6060612713826040518060400160405280602081526020017f5361666545524332303a206c6f772d6c6576656c2063616c6c206661696c6564815250856001600160a01b031661276f9092919063ffffffff16565b8051909150156125bd5780806020019051602081101561273257600080fd5b50516125bd5760405162461bcd60e51b815260040180806020018281038252602a815260200180612a86602a913960400191505060405180910390fd5b606061277e8484600085612786565b949350505050565b6060612791856128f3565b6127e2576040805162461bcd60e51b815260206004820152601d60248201527f416464726573733a2063616c6c20746f206e6f6e2d636f6e7472616374000000604482015290519081900360640190fd5b60006060866001600160a01b031685876040518082805190602001908083835b602083106128215780518252601f199092019160209182019101612802565b6001836020036101000a03801982511681845116808217855250505050505090500191505060006040518083038185875af1925050503d8060008114612883576040519150601f19603f3d011682016040523d82523d6000602084013e612888565b606091505b5091509150811561289c57915061277e9050565b8051156128ac5780518082602001fd5b60405162461bcd60e51b81526020600482018181528651602484015286518793919283926044019190850190808383600083156126135781810151838201526020016125fb565b6000813f7fc5d2460186f7233c927e7db2dcc703c0e500b653ca82273b7bfad8045d85a47081811480159061277e57505015159291505056fe4c6f636b65644c6971756964697479207769746820737563682069642068617320616c726561647920756e6c6f636b65644f776e61626c653a206e6577206f776e657220697320746865207a65726f2061646472657373546f6b656e207472616e73666572206572726f723a20506c65617365206c6f7765722074686520616d6f756e74206f66207072656d69756d73207468617420796f752077616e7420746f2073656e642e536166654d6174683a206d756c7469706c69636174696f6e206f766572666c6f77506f6f6c204572726f723a20596f752061726520747279696e6720746f20756e6c6f636b206d6f72652066756e6473207468616e2068617665206265656e206c6f636b656420666f7220796f757220636f6e74726163742e20506c65617365206c6f7765722074686520616d6f756e742e4f776e61626c653a2063616c6c6572206973206e6f7420746865206f776e65725361666545524332303a204552433230206f7065726174696f6e20646964206e6f742073756363656564a2646970667358221220f3dd010f32875098d9810a91049fb3e7e9ad987b132b8f6afc4010883f8210ff64736f6c634300060c0033",
  "immutableReferences": {},
  "source": "pragma solidity 0.6.12;\r\n\r\n/**\r\n * SPDX-License-Identifier: GPL-3.0-or-later\r\n * Hegic\r\n * Copyright (C) 2020 Hegic Protocol\r\n *\r\n *  19 March 2021 - Modified by DannyDoritoEth for Optyn\r\n *\r\n * This program is free software: you can redistribute it and/or modify\r\n * it under the terms of the GNU General Public License as published by\r\n * the Free Software Foundation, either version 3 of the License, or\r\n * (at your option) any later version.\r\n *\r\n * This program is distributed in the hope that it will be useful,\r\n * but WITHOUT ANY WARRANTY; without even the implied warranty of\r\n * MERCHANTABILITY or FITNESS FOR A PARTICULAR PURPOSE.  See the\r\n * GNU General Public License for more details.\r\n *\r\n * You should have received a copy of the GNU General Public License\r\n * along with this program.  If not, see <http://www.gnu.org/licenses/>.\r\n */\r\n\r\n\r\nimport \"@openzeppelin/contracts/presets/ERC1155PresetMinterPauser.sol\";\r\nimport \"@openzeppelin/contracts/token/ERC20/SafeERC20.sol\";\r\nimport \"./interfaces/Interfaces.sol\";\r\nimport \"./ERC1155Pool.sol\";\r\n\r\n// import \"github.com/OpenZeppelin/openzeppelin-contracts/blob/v3.3.0/contracts/presets/ERC1155PresetMinterPauser.sol\";\r\n// import \"github.com/OpenZeppelin/openzeppelin-contracts/blob/v3.3.0/contracts/token/ERC20/ERC20.sol\";\r\n// import \"Interfaces.sol\";\r\n// import \"./ERC1155Pool.sol\";\r\n\r\n\r\n//16.66 KB with only ERC1155PresetMinterPauser\r\ncontract ERC20LiquidityPool is ILiquidityPool, Ownable  {\r\n    using SafeMath for uint256;\r\n    using SafeERC20 for IERC20;\r\n\r\n    uint256 public constant INITIAL_RATE = 1e18;\r\n\r\n\r\n    //ERC20 collatoral pools\r\n    mapping(IERC20 => bool) public initialised;\r\n    mapping(IERC20 => uint256) public lockedAmount;\r\n    mapping(IERC20 => uint256) public lockedPremiumCall;\r\n    mapping(IERC20 => uint256) public lockedPremiumPut;\r\n    mapping(IERC20 => mapping(address => uint256)) public lastProvideTimestamp;\r\n    mapping(IERC20 => uint256) public totalSupply;\r\n    mapping(IERC20 => uint256) public writerPoolPos;\r\n    mapping(IERC20 => uint256) public maxInvest;\r\n    mapping(IERC20 => uint256) public lockupPeriod;\r\n    mapping(uint256 => IERC20) public tokenPool;\r\n\r\n    uint256 public tokenPoolCount = 0;\r\n\r\n    LockedLiquidity[] public lockedLiquidity;\r\n\r\n    //Writer pool\r\n    WriterPool public writerPool;\r\n\r\n    //Option market\r\n    mapping(uint256 => AggregatorV3Interface) public priceProvider;\r\n    mapping(uint256 => IERC20) public collatoralToken;\r\n    mapping(uint256 => uint256) public PRICE_DECIMALS;\r\n    mapping(uint256 => uint256) public collateralizationRatio;\r\n    uint256 public optionMarketCount = 0;\r\n\r\n\r\n    constructor(WriterPool _writerPool) public {\r\n        writerPool = _writerPool;\r\n    }\r\n\r\n   function createMarket(AggregatorV3Interface _priceProvider, ERC20 _token) public onlyOwner {\r\n        priceProvider[optionMarketCount] = _priceProvider;\r\n        collatoralToken[optionMarketCount] = _token;\r\n        PRICE_DECIMALS[optionMarketCount] = 1e8;\r\n        collateralizationRatio[optionMarketCount] = 10000;\r\n\r\n\r\n        if (!initialised[_token]){\r\n            writerPoolPos[_token] = tokenPoolCount;\r\n            initialised[_token] = true;\r\n            lockupPeriod[_token] = 2 weeks;\r\n            tokenPool[tokenPoolCount] = _token;\r\n            tokenPoolCount += 1;\r\n        }\r\n\r\n        emit CreateMarket(optionMarketCount,_priceProvider,_token);\r\n        optionMarketCount += 1;\r\n   }\r\n\r\n\r\n    /**\r\n     * @notice Used for changing the lockup period\r\n     * @param value New period value\r\n     */\r\n    function setLockupPeriod(IERC20 _token, uint256 value) external onlyOwner {\r\n        lockupPeriod[_token] = value;\r\n    }\r\n\r\n    function setMaxInvest(IERC20 _token, uint256 _maxInvest) public onlyOwner {\r\n        maxInvest[_token] = _maxInvest;\r\n    }\r\n\r\n\r\n    /**\r\n     * @notice Used for changing option collateralization ratio\r\n     * @param value New optionCollateralizationRatio value\r\n     */\r\n    function setCollaterizationRatio(uint value, uint optionMarketId) external onlyOwner {\r\n        require(5000 <= value && value <= 10000, \"wrong value\");\r\n        collateralizationRatio[optionMarketId] = value;\r\n    }\r\n\r\n\r\n    /*\r\n     * @nonce calls by ERC20Options to lock funds\r\n     * @param amount Amount of funds that should be locked in an option\r\n     */\r\n    function lock(uint id, uint256 amount, uint256 premium, IERC20 token, IOptions.OptionType optionType) external onlyOwner {\r\n        require(id == lockedLiquidity.length, \"Wrong id\");\r\n\r\n       require(\r\n            lockedAmount[token].add(amount) <= totalBalance(token),\r\n            \"Pool Error: Amount is too large.\"\r\n        );\r\n\r\n        lockedLiquidity.push(LockedLiquidity(amount, premium, true, token, optionType));\r\n        if(optionType == IOptions.OptionType.Put)\r\n            lockedPremiumPut[token] = lockedPremiumPut[token].add(premium);\r\n        else\r\n            lockedPremiumCall[token] = lockedPremiumCall[token].add(premium);\r\n        lockedAmount[token] = lockedAmount[token].add(amount);\r\n    }\r\n\r\n\r\n\r\n    /*\r\n     * @nonce Calls by ERC20Options to unlock funds\r\n     * @param amount Amount of funds that should be unlocked in an expired option\r\n     */\r\n    function unlock(uint256 id) external override onlyOwner {\r\n        LockedLiquidity storage ll = lockedLiquidity[id];\r\n        require(ll.locked, \"LockedLiquidity with such id has already unlocked\");\r\n        ll.locked = false;\r\n\r\n        if(ll.optionType == IOptions.OptionType.Put)\r\n          lockedPremiumPut[ll.pool] = lockedPremiumPut[ll.pool].sub(ll.premium);\r\n        else\r\n          lockedPremiumCall[ll.pool] = lockedPremiumCall[ll.pool].sub(ll.premium);\r\n        lockedAmount[ll.pool] = lockedAmount[ll.pool].sub(ll.amount);\r\n\r\n\r\n        emit Profit(id, ll.pool, ll.premium);\r\n    }\r\n\r\n\r\n\r\n     /*\r\n     * @nonce calls by ERC20Options to send funds to liquidity providers after an option's expiration\r\n     * @param to Provider\r\n     * @param amount Funds that should be sent\r\n     */\r\n    function send(uint id, address payable to, uint256 amount)\r\n        external\r\n        override\r\n        onlyOwner\r\n    {\r\n        LockedLiquidity storage ll = lockedLiquidity[id];\r\n        require(ll.locked, \"LockedLiquidity with such id has already unlocked\");\r\n        require(to != address(0));\r\n\r\n        ll.locked = false;\r\n        if(ll.optionType == IOptions.OptionType.Put)\r\n            lockedPremiumPut[ll.pool] = lockedPremiumPut[ll.pool].sub(ll.premium);\r\n        else\r\n            lockedPremiumCall[ll.pool] = lockedPremiumCall[ll.pool].sub(ll.premium);\r\n\r\n        lockedAmount[ll.pool] = lockedAmount[ll.pool].sub(ll.amount);\r\n\r\n        uint transferAmount = amount > ll.amount ? ll.amount : amount;\r\n        ll.pool.safeTransfer(to, transferAmount);\r\n\r\n        if (transferAmount <= ll.premium)\r\n            emit Profit(id, ll.pool, ll.premium - transferAmount);\r\n        else\r\n            emit Loss(id, ll.pool, transferAmount - ll.premium);\r\n    }\r\n\r\n   \r\n\r\n   /*\r\n     * @nonce Returns the token total balance provided to the pool\r\n     * @return balance Pool balance\r\n     */\r\n    function totalBalance(IERC20 token) public override view returns (uint256) {\r\n        // require(address(tokens[pool]) != address(0),\"Pool doesn't exist\");\r\n        return token.balanceOf(address(this)).sub(lockedPremiumPut[token]).sub(lockedPremiumCall[token]);\r\n    }\r\n\r\n    function proportionLocked(IERC20 token, uint256 newAmount) public view returns (uint256 ){\r\n       if (token.balanceOf(address(this))==0)\r\n           return 0;\r\n\r\n       return ((lockedAmount[token].add(newAmount)).mul(1e9)).div(token.balanceOf(address(this)));\r\n    }\r\n\r\n    function putBalanceFactor(IERC20 token, uint256 newAmount) public view returns (uint256 ){\r\n        return ((lockedPremiumPut[token].add(newAmount)).mul(1e9)).div(lockedPremium(token));\r\n    }\r\n\r\n    function callBalanceFactor(IERC20 token, uint256 newAmount) public view returns (uint256 ){\r\n        return (((lockedPremiumCall[token].add(newAmount)).mul(1e9)).div(lockedPremium(token)));\r\n    }\r\n\r\n    function lockedPremium(IERC20 token) public view returns (uint256){\r\n        return (lockedPremiumPut[token].add(lockedPremiumCall[token]));\r\n    }\r\n\r\n     function putRatio(IERC20 token) public view returns (uint256){\r\n        if (lockedPremium(token)==0)\r\n            return 5e9;\r\n\r\n        int256 ratio = int256((lockedPremiumPut[token].mul(1e9)).div(lockedPremiumPut[token].add(lockedPremiumCall[token])));\r\n        if (ratio<0)\r\n            return 0;\r\n        else\r\n            return uint256(ratio);\r\n    }\r\n    \r\n    function callRatio(IERC20 token) public view returns (uint256){\r\n        if (lockedPremium(token)==0)\r\n            return 5e9;\r\n\r\n        int256 ratio = int256((lockedPremiumCall[token].mul(1e9)).div(lockedPremiumPut[token].add(lockedPremiumCall[token])));\r\n        if (ratio<0)\r\n            return 0;\r\n        else\r\n            return uint256(ratio);\r\n    }\r\n\r\n    /*\r\n     * @nonce A provider supplies token to the pool and receives writeToken tokens\r\n     * @param amount Provided tokens\r\n     * @param minMint Minimum amount of tokens that should be received by a provider.\r\n                      Calling the provide function will require the minimum amount of tokens to be minted.\r\n                      The actual amount that will be minted could vary but can only be higher (not lower) than the minimum value.\r\n     * @return mint Amount of tokens to be received\r\n     */\r\n    function provide(uint256 amount, uint256 minMint, IERC20 token) public returns (uint256 mint) {\r\n        lastProvideTimestamp[token][msg.sender] = block.timestamp;\r\n        uint supply = totalSupply[token];\r\n        uint balance = totalBalance(token);\r\n        if (supply > 0 && balance > 0){\r\n            mint = amount.mul(supply).div(balance);\r\n        }\r\n        else\r\n            mint = amount.mul(INITIAL_RATE);\r\n\r\n        require(mint >= minMint, \"Pool: Mint limit is too large\");\r\n        require(mint > 0, \"Pool: Amount is too small\");\r\n\r\n        require(token.balanceOf(msg.sender)>=amount,\r\n            \"Token transfer error: Please lower the amount of premiums that you want to send.\"\r\n        );        \r\n        require(amount<maxInvest[token],\"Max invest limit reached\");\r\n\r\n        token.safeTransferFrom(msg.sender, address(this), amount);\r\n\r\n        writerPool.mint(msg.sender, writerPoolPos[token], mint, \"\");\r\n        totalSupply[token] = totalSupply[token].add(mint);\r\n\r\n        emit Provide(msg.sender, token, amount, mint);\r\n    }\r\n\r\n\r\n\r\n    /*\r\n     * @nonce Provider burns writer tokens and receives erc20 tokens from the pool\r\n     * @param amount Amount of erc20 tokens to receive\r\n     * @param maxBurn Maximum amount of tokens that can be burned\r\n     * @return mint Amount of tokens to be burnt\r\n     */\r\n    function withdraw(uint256 amount, uint256 maxBurn, IERC20 token) public returns (uint256 burn) {\r\n        require(\r\n            lastProvideTimestamp[token][msg.sender].add(lockupPeriod[token]) <= block.timestamp,\r\n            \"Pool: Withdrawal is locked up\"\r\n        );\r\n        require(\r\n            amount <= availableBalance(token),\r\n            \"Pool Error: You are trying to unlock more funds than have been locked for your contract. Please lower the amount.\"\r\n        );\r\n\r\n        burn = amount.mul(totalSupply[token]).div(totalBalance(token));\r\n\r\n        require(burn <= maxBurn, \"Pool: Burn limit is too small\");\r\n        require(burn <= writerPool.balanceOf(msg.sender, writerPoolPos[token]), \"Pool: Amount is too large\");\r\n        require(burn > 0, \"Pool: Amount is too small\");\r\n\r\n        writerPool.burn(msg.sender, writerPoolPos[token], burn);\r\n        totalSupply[token] = totalSupply[token].sub(burn);\r\n        emit Withdraw(msg.sender, token, amount, burn);\r\n        require(token.transfer(msg.sender, amount), \"Insufficient funds\");\r\n    }\r\n\r\n\r\n\r\n\r\n    function writerBalanceOf(address user, IERC20 token)public view returns (uint256 share){\r\n        return writerPool.balanceOf(user, writerPoolPos[token]);\r\n    }\r\n\r\n\r\n\r\n    /*\r\n     * @nonce Returns provider's share in erc20 tokens\r\n     * @param account Provider's address\r\n     * @return Provider's share in token\r\n     */\r\n    function shareOf(address user, IERC20 token) public view returns (uint256 share) {\r\n        uint supply = totalSupply[token];\r\n        if (supply > 0)\r\n            share = totalBalance(token).mul(writerPool.balanceOf(user, writerPoolPos[token])).div(supply);\r\n        else\r\n            share = 0;\r\n    }\r\n\r\n \r\n    /*\r\n     * @nonce Returns the amount of erc20 tokens available for withdrawals\r\n     * @return balance Unlocked amount\r\n     */\r\n    function availableBalance(IERC20 token) public view returns (uint256) {\r\n        return totalBalance(token).sub(lockedAmount[token]);\r\n    }\r\n\r\n}",
  "sourcePath": "C:\\Users\\scott\\source\\repos\\options-contracts\\contracts\\ERC20LiquidityPool.sol",
  "compiler": {
    "name": "solc",
    "version": "0.6.12+commit.27d51765.Emscripten.clang"
  },
  "schemaVersion": "3.3.2",
  "updatedAt": "2021-03-21T00:53:59.083Z",
  "networkType": "ethereum",
  "devdoc": {
    "kind": "dev",
    "methods": {
      "owner()": {
        "details": "Returns the address of the current owner."
      },
      "renounceOwnership()": {
        "details": "Leaves the contract without owner. It will not be possible to call `onlyOwner` functions anymore. Can only be called by the current owner. NOTE: Renouncing ownership will leave the contract without an owner, thereby removing any functionality that is only available to the owner."
      },
      "setCollaterizationRatio(uint256,uint256)": {
        "params": {
          "value": "New optionCollateralizationRatio value"
        }
      },
      "setLockupPeriod(address,uint256)": {
        "params": {
          "value": "New period value"
        }
      },
      "transferOwnership(address)": {
        "details": "Transfers ownership of the contract to a new account (`newOwner`). Can only be called by the current owner."
      }
    },
    "version": 1
  },
  "userdoc": {
    "kind": "user",
    "methods": {
      "setCollaterizationRatio(uint256,uint256)": {
        "notice": "Used for changing option collateralization ratio"
      },
      "setLockupPeriod(address,uint256)": {
        "notice": "Used for changing the lockup period"
      }
    },
    "version": 1
  }
}